:020000040000fa
:020000040040ba
:10000000f8ef45205d244100674941008b4d4100d8
:10001000236b4100b3774100ff7b410000000000eb
:10002000000000000000000000000000510a420033
:100030007b5641000000000061c04100adf9410065
:1000400037464100374641003746410037464100b8
:1000500037464100374641003746410037464100a8
:100060003746410000000000374641003746410056
:100070003746410037464100d141410037464100f3
:10008000374641003746410037464100d5254100fb
:10009000374641003746410037464100e1074200fc
:1000a0003746410037464100374641003746410058
:1000b0003746410037464100374641003746410048
:1000c0003746410037464100374641003746410038
:1000d000374641003746410037464100b3214200d0
:1000e0003746410037464100374641003746410018
:1000f0003746410037464100374641003746410008
:1001000037464100374641003746410037464100f7
:100110003746410000000000000000000000000021
:1001200037464100374641003746410037464100d7
:1001300037464100374641003746410037464100c7
:1001400037464100374641003746410037464100b7
:1001500037464100374641003746410037464100a7
:0801600037464100374641001b
:020000040000fa
:020000040040ba
:10016800f8b500bff8bc08bc9e467047091b4200a2
:10017800b9b64100f8b500bff8bc08bc9e46704748
:0401880095b64100e7
:020000040000fa
:020000040040ba
:08018c00d0ce000001000000cc
:020000040000fa
:020000040040ba
:100194004c696d697465640044697265637465646f
:1001a4000000000055736167653a20616e6e6f75db
:1001b4006e636520302f310d0a0000002573206224
:1001c40063617374207375626d69747465643a2035
:1001d40025640d0a0000000055736167653a206dbf
:1001e4006163696e666f200d0a00000045783a204d
:1001f4006d6163696e666f200d0a0000496e746557
:1002040072666163653a202573204472697665726b
:1002140020537461746973746963730d0a00000078
:100224000d0a2052656365697665205374617469ab
:1002340073746963730d0a0009206e52784f6b5012
:1002440061636b6574733a2025640d0a09206e524c
:100254007850656e64427566666572733a202564eb
:100264000d0a09206e5278536368656442756666a8
:100274006572733a2025640d0a00000009206e524d
:10028400784572726f725061636b6574733a20259e
:10029400640d0a09206e5278467261676d656e744a
:1002a4004572726f72733a2025640d0a09206e52ea
:1002b40078427566664e6f74417661696c61626cf2
:1002c400653a2025640d0a000d0a205472616e738c
:1002d4006d697420537461746973746963730d0a6e
:1002e4000000000009206e54784f6b5061636b6509
:1002f40074733a2025640d0a09206e547850656e93
:1003040064427566666572733a2025640d0a092095
:100314006e54784572726f725061636b6574733a90
:100324002025640d0a09206e54785175657565465b
:10033400756c6c3a2025640d0a0d0a00096e6f7401
:1003440020737570706f727465640d0a000000008c
:10035400496e746572666163653a2025732048614d
:10036400726477617265205265676973746572207f
:100374005374617475730d0a00000000092025731d
:100384003a20307825780d0a00000000656e61621d
:100394006c656400656e61626c650000646973611c
:1003a400626c65640000000064697361626c6500de
:1003b40055736167653a202573203c696e746572d4
:1003c400666163653e203c6f6e2f6f66663e200d4e
:1003d4000a00000045783a202573205049433332ff
:1003e400494e54206f6e200d0a000000556e6b6e4e
:1003f4006f776e20696e746572666163650d0a00bd
:100404006f6e00006f666600556e6b6e6f776e20c0
:100414006f7074696f6e0d0a00000000257320254b
:10042400730d0a004661696c656420746f2025733e
:100434002025730d0a000000556e6b6e6f776e20d9
:10044400736572766963652025730d0a00000000e8
:100454006e6f6e650000000084184000010000000b
:100464005014400002000000040440000300000097
:100474000804400003000000881840000400000045
:1004840055736167653a20646e7363203c64656ce0
:100494002f696e666f2f6f6e2f6f66662f6c6f6f8e
:1004a4006b75703e200d0a0055736167653a20250f
:1004b40073203c6f6e2f6f66663e203c696e7465d8
:1004c40072666163653e203c7374726963742f7055
:1004d4007265663e2f3c636c6561723e200d0a00b6
:1004e40045783a202573206f6e20657468300d0ab4
:1004f40000000000737472696374000070726566b2
:1005040000000000636c6561720000005573616750
:10051400653a20646e7363206c6f6f6b7570203c5a
:10052400747970653e203c686f73744e616d653eee
:10053400200d0a0048656c703a203c686f73744e55
:10054400616d653e2855524c29202d206c6f6f6bd0
:1005540020757020666f7220686f73746e616d65ac
:100564000d0a000048656c703a203c747970653e51
:10057400203a2061206f72204120666f722049501a
:1005840076342061646472657373206c6f6f6b756d
:10059400700d0a0048656c703a203c747970653eb1
:1005a400203a2061616161206f7220414141412004
:1005b400666f722049507636206164647265737385
:1005c400206c6f6f6b75700d0a00000048656c70cd
:1005d4003a203c747970653e203a20616e79206639
:1005e4006f7220626f7468204950763420616e64a3
:1005f40020495076362061646472657373206c6f91
:100604006f6b75700d0a0000646e7363206c6f6ffe
:100614006b75703a20636f6d6d616e6420696e2036
:1006240070726f67726573732e20526574727920cd
:100634006c617465722e0d0a000000004100000018
:1006440061000000414141410000000061616161bd
:1006540000000000414e5900616e7900646e7363be
:10066400206c6f6f6b75703a205b25735d204c6f47
:100674006f6b75702054797065206e6f742073757c
:1006840070706f727465642e0d0a0000646e73637b
:10069400206c6f6f6b75703a20486f7374206e61b5
:1006a4006d6520746f6f206c6f6e672e20526574b9
:1006b40072792e0d0a000000646e7363206c6f6ff4
:1006c4006b75703a207265736f6c76696e6720681b
:1006d4006f73743a20257320666f72207479706585
:1006e4003a2573200d0a000055736167653a20644a
:1006f4006e73632064656c203c686f73744e616d27
:10070400653e7c616c6c200d0a00000048656c70cd
:100714003a203c686f73744e616d653e2855524ca7
:1007240029202d2052656d6f7665207468652065db
:100734006e74727920696620657869737473200d0c
:100744000a00000048656c703a20616c6c202d2012
:1007540052656d6f766520616c6c207468652072db
:1007640065736f6c76656420656e747279200d0a0a
:1007740000000000616c6c005b25735d206e6f747b
:100784002070617274206f662074686520444e5333
:1007940020436163686520656e747279200d0a00d8
:1007a400496e636f6d706c65746520636f6d6d6108
:1007b4006e64200d0a00000055736167653a206479
:1007c4006e736320696e666f200d0a0048656c7055
:1007d4003a20646973706c61792074686520444eb2
:1007e4005320636163686520656e74727920646563
:1007f4007461696c73200d0a00000000444e53209c
:10080400436c69656e7420697320646f776e210d83
:100814000a000000444e5320436c69656e742049fd
:1008240046202d205374726963743a2025732c205a
:100834005072656665727265643a2025730d0a000c
:10084400444e5320436c69656e74202d2074696d89
:10085400653a2025642c2070656e64696e673a20c1
:1008640025642c2063757272656e743a2025642c9d
:1008740020746f74616c3a2025640d0a0000000036
:10088400486f73746e616d65203d202573200d0ad9
:1008940054696d656f7574203d202564200d0a0030
:1008a40049507634203d25730d0a000049507636b0
:1008b400203d2025730d0a002d2d2d2d2d2d2d2da0
:1008c4002d2d2d2d2d2d2d2d2d2d2d2d2d2d2d2d54
:1008d4002d2d2d2d2d2d2d2d2d2d2d2d2d2d2d2d44
:1008e4002d2d2d2d2d2d2d2d2d2d2d2d0d0a0000d1
:1008f4004e6f20444e5320436c69656e74204361ef
:1009040063686520656e7472696573200d0a000062
:10091400496e76616c696420496e70757420436f0a
:100924006d6d616e64203a5b202573205d200d0a95
:10093400000000006172703a206164647265737330
:1009440020616c7265616479207175657565640deb
:100954000a0000006172703a206164647265737306
:10096400206e65776c79207175657565640d0a0074
:100974006172703a2071756575652066756c6c2faf
:100984006572726f720d0a0055736167653a206172
:100994007270203c696e746572666163653e203cca
:1009a400722f712f642f6c3e203c69704164647215
:1009b4003e200d0a0000000045783a206172702044
:1009c4005049433332494e542072203139322e314a
:1009d40036382e312e313035200d0a006c000000df
:1009e4006172703a20256420736c6f747320696e91
:1009f400207468652063616368650d0a0000000067
:100a04006172703a2049507634206164647265736f
:100a1400733a2025730000002c204d41432041648b
:100a240064726573733a2025730000002c20636f91
:100a34006d706c6574650d0a000000002c207065f3
:100a4400726d616e656e740d0a0000006172703a19
:100a5400204950763420616464726573733a2025aa
:100a6400732c207175657565640d0a00496e766195
:100a74006c696420495020616464726573732073e7
:100a84007472696e67200d0a000000007200000095
:100a94006172703a207265736f6c766564202d20e4
:100aa4004950763420616464726573733a20257307
:100ab4002c204d414320416464726573733a2025b0
:100ac400730d0a00710000006172703a204950767b
:100ad4003420616464726573733a2025732c204d4d
:100ae400414320416464726573733a2025730d0a8f
:100af400000000006172703a206e6f2073756368a5
:100b040020656e7472790d0a000000006400000014
:100b14006172703a2072656d6f7665642025730d7d
:100b24000a0000006172703a20556e6b6e6f776e2a
:100b3400206f7074696f6e0d0a00000050696e6753
:100b44003a20646f6e652e2053656e7420256420f0
:100b540072657175657374732c207265636569764b
:100b64006564202564207265706c6965732e0d0ab6
:100b74000000000050696e672055736167653a2074
:100b840070696e67203c73746f703e2f3c6e616dac
:100b9400652f616464726573733e203c6920696edd
:100ba400746572666163653e203c6e206e50696eaa
:100bb40067733e203c74206d73506572696f643ea8
:100bc400203c732073697a653e0d0a0073746f705c
:100bd4000000000050696e673a20636f6d6d616eae
:100be4006420696e2070726f67726573732e205271
:100bf40065747279206c617465722e0d0a000000b0
:100c040050696e673a20486f7374206e616d652079
:100c1400746f6f206c6f6e672e2052657472792e1c
:100c24000d0a0000690000006e000000740000005e
:100c34007300000050696e673a2044617461207348
:100c4400697a6520746f6f206269672e204d617820
:100c54003a2025642e2052657472790d0a00000032
:100c640050696e673a20556e6b6e6f776e207061b7
:100c740072616d657465720d0a00000050696e67db
:100c84003a207265736f6c76696e6720686f73744f
:100c94003a2025730d0a000055736167653a206494
:100ca40068637073696e666f203c696e7465726602
:100cb4006163653e200d0a0045783a2064686370dc
:100cc40073696e666f205049433332494e54200d88
:100cd4000a000000556e6b6e6f776e20696e746546
:100ce4007266616365207370656369666965642013
:100cf4000d0a00004d414320416464726573730919
:100d040009495041646472657373090952656d61e0
:100d1400696e696e674c6561736554696d65200d14
:100d24000a000000200a0d204e6f206d6f726520ae
:100d3400656e7472792070726573656e74200d0a25
:100d44000000000025730000092573200000000046
:100d540009256420536563730d0a0000696e746588
:100d6400726e616c00000000706f6f6c0000000018
:100d740065787465726e616c00000000756e6b6e50
:100d84006f776e0055736167653a206865617069b5
:100d94006e666f20312f322f33200d0a00000000c1
:100da40045783a2068656170696e666f20310d0a76
:100db400000000004e6f206865617020696e666fe8
:100dc4002065786973747320666f72207479706516
:100dd4003a202573210d0a004865617020747970ea
:100de400653a2025732e20496e697469616c20630d
:100df40072656174656420686561702073697a65e1
:100e04003a2025642042797465730d0a00000000bd
:100e1400416c6c6f6361626c6520626c6f636b2004
:100e2400686561702073697a653a20256420427987
:100e34007465730d0a000000416c6c206176616971
:100e44006c61626c6520686561702073697a653acb
:100e54002025642042797465732c206869676820b2
:100e640077617465726d61726b3a2025640d0a00b6
:100e74004c6173742068656170206572726f723a98
:100e840020307825780d0a004e6f20547261636516
:100e940020696e666f206578697374732e0d0a007d
:100ea400537461636b207570206661696c65640db1
:100eb4000a000000537461636b20757020737563be
:100ec4006365656465640d0a00000000557361671d
:100ed400653a20737461636b203c75702f646f777f
:100ee4006e3e203c70726573657276653e0d0a0035
:100ef40045783a20737461636b20646f776e207059
:100f0400726573657276650d0a00000075700000e5
:100f1400537461636b20616c7265616479207570d0
:100f2400210d0a005475726e20537461636b206442
:100f34006f776e20616e64207468656e2075702111
:100f44000d0a000052657374617274696e672074cf
:100f5400686520737461636b207769746820256405
:100f640020696e746572666163652873290d0a00d1
:100f7400646f776e00000000537461636b20646fcc
:100f8400776e3a2063616e6e6f74206765742061ba
:100f940020737461636b2068616e646c650d0a0074
:100fa400537461636b20646f776e2073756363653c
:100fb400656465640d0a000055736167653a2069cc
:100fc40066203c696e746572666163653e203c64ac
:100fd4006f776e2f75703e200d0a000045783a2019
:100fe4006966205049433332494e5420646f776e0a
:100ff400200d0a005468697320696e746572666115
:10100400636520616c72656164792075700d0a00f6
:101014005468697320696e746572666163652061e2
:101024006c726561647920646f776e0d0a0000004c
:1010340057726f6e6720706172616d65746572209e
:10104400737065636966696564200d0a00000000b9
:101054004f7065726174696f6e2073756363657335
:101064007366756c210d0a004f7065726174696f47
:101074006e206661696c6564210d0a0055736167b1
:10108400653a207365746d6163203c696e746572a2
:10109400666163653e203c783a783a783a783a78e3
:1010a4003a783e200d0a000045783a207365746d45
:1010b4006163205049433332494e542061613a629e
:1010c400623a63633a64643a65653a6666200d0a77
:1010d40000000000617267765b325d3a2025730d73
:1010e4000a000000496e76616c6964204d4143201a
:1010f4006164647265737320737472696e67200d22
:101104000a000000536574204d41432061646472f9
:10111400657373206661696c65640d0a00000000e4
:101124005365742042494f53204e616d65204f4be7
:101134000d0a00005365742042494f53204e616ddf
:1011440065206661696c65640d0a0000557361670a
:10115400653a2073657462696f73203c696e7465c7
:1011640072666163653e203c782e782e782e783e38
:10117400200d0a0045783a2073657462696f732004
:101184005049433332494e54204d434850424f4115
:1011940052445f3239200d0a000000005365742068
:1011a4006761746577617920616464726573732023
:1011b4004f4b0d0a0000000053657420676174658d
:1011c4007761792061646472657373206661696c08
:1011d40065640d0a0000000055736167653a207369
:1011e40065746777203c696e746572666163653ef9
:1011f400203c697076342f362061646472657373a1
:101204003e203c76616c696454696d653e200d0a2c
:101214000000000045783a207365746777205049d0
:10122400433332494e54203139322e3136382e3040
:101234002e31200d0a00000053657420697020616e
:10124400646472657373204f4b0d0a0053657420f8
:1012540069702061646472657373206661696c658a
:10126400640d0a0055736167653a2073657469708b
:10127400203c696e746572666163653e203c6970ea
:1012840076342f3620616464726573733e203c6942
:101294007076346d61736b2f697076362070726569
:1012a400666978206c656e3e0d0a000045783a2028
:1012b4007365746970205049433332494e54203168
:1012c40039322e3136382e302e38203235352e3202
:1012d40035352e3235352e30200d0a00416e206111
:1012e40064647265737320736572766963652069db
:1012f4007320616c72656164792072756e6e696ebb
:10130400672e2053746f7020444843502c205a4356
:101314004c4c2c206574632e2066697273740d0a1c
:1013240000000000496e76616c6964204950206dac
:1013340061736b20737472696e67200d0a0000007c
:101344004e6f207375636820696e7465726661639d
:10135400652069732075700d0a000000557361677c
:10136400653a20736574646e73203c696e746572ab
:10137400666163653e203c782e782e782e783e2078
:101384000d0a000045783a20736574646e7320502a
:1013940049433332494e54203235352e3235352eb9
:1013a4003235352e30200d0a0000000053657420bc
:1013b400444e532061646472657373206661696c82
:1013c40065640d0a000000006e6f7420676976651d
:1013d4006e00000073756363657373006661696c06
:1013e4000000000055736167653a202573203c694d
:1013f4006e746572666163653e203c6f6e2f6f6626
:10140400662f72656e65772f726571756573742fbb
:10141400696e666f3e200d0a0000000072656e65fd
:10142400770000007265717565737400526571759b
:10143400657374206e6565647320616e2049502065
:10144400616464726573730d0a000000696e666fef
:101454000000000044484350207374617475733a6b
:101464002025642028202564203d3d20426f756e90
:1014740064292c2074696d653a2025640d0a0000e6
:1014840044484350206c65617365207374617274c1
:101494003a2025642c206475726174696f6e3a2059
:1014a4002564730d0a000000444843502072656ea1
:1014b40065772074696d653a2025642c2072656215
:1014c400696e642074696d653a2025640d0a000014
:1014d4004448435020616464726573733a202573f1
:1014e4000d0a000044484350207365727665723ad1
:1014f4002025730d0a0000004448435020626f6f9a
:1015040074206e616d653a2025730d0a0000000099
:10151400444843503a206661696c656420746f20c6
:1015240067657420696e666f0d0a000025732025b7
:10153400732025730d0a0000737563636573736606
:10154400756c00006661696c656421004e6f6e65a0
:10155400000000007365740067657400446566618b
:10156400756c7420696e7465726661636520736559
:10157400742025730d0a000044656661756c74203f
:10158400696e746572666163652069733a202573b8
:101594000d0a000055736167653a206465666e65df
:1015a40074207365742f676574203c696e7465726a
:1015b400666163653e0d0a0045783a206465666e8f
:1015c40065742073657420657468300d0a0000002a
:1015d40055500000444f574e0000000052656164ae
:1015e400790000004e6f7420526561647900000038
:1015f40064656661756c7420495020616464726529
:10160400737300006468637073000000557361674e
:10161400653a206e6574696e666f0d0a00000000fd
:1016240045783a206e6574696e666f0d0a00000095
:101634002d2d2d2d2d2d2d2d2d2d20496e746572c2
:1016440066616365203c25732f25733e202d2d2d67
:101654002d2d2d2d2d2d2d200d0a0000496e746584
:10166400726661636520697320646f776e0d0a008a
:10167400486f7374204e616d653a202573202d20c8
:101684004e424e5320656e61626c65640d0a000023
:101694004950763420416464726573733a2025732b
:1016a4000d0a00004d61736b3a2025730d0a00008a
:1016b400476174657761793a2025730d0a0000004b
:1016c400444e533a2025730d0a0000004d41432037
:1016d400416464726573733a2025730d0a00000037
:1016e400646863702069732025730d0a000000008c
:1016f4004c696e6b2069732025730d0a000000008d
:101704005374617475733a2025730d0a0000000048
:1017140064686370000000002573206973204f4ed5
:101724000d0a000050696e673a2077726f6e672069
:101734007265706c792072656365697665642e20c4
:101744004d61736b3a2030782532780d0a00000021
:1017540050696e673a207265706c795b25645d2010
:1017640066726f6d2025733a2074696d65203d2083
:1017740025646d730d0a000050696e673a20444e6b
:1017840053206661696c75726520666f72202573db
:101794000d0a0000444e53204c6f6f6b75703a2055
:1017a400444e53206661696c75726520666f7220c1
:1017b40025730d0a00000000444e53204c6f6f6bdc
:1017c40075703a20726571756573742074696d65fe
:1017d4006f75742e0d0a00004c6f6f6b757020418d
:1017e4006e737765723a0d0a2d2d2d2d2d2d2d2d0d
:1017f4002d2d2d2d2d2d2d2d2d2d2d2d2d2d0d0a58
:10180400000000004e6f204c6f6f6b757020656e8a
:1018140074727920666f72205b25735d0d0a000077
:101824005b25735d20412049507634204164647205
:10183400657373203a2025642e25642e25642e2595
:10184400640d0a005b25735d2041414141204950ec
:1018540076362041646472657373203a25730d0ae9
:10186400000000003a20737461636b20636f6d6d38
:10187400616e64730000000074637069700000009e
:1018840064656c006c6f6f6b757000006e657469d5
:101894006e666f003a20476574206e6574776f72c8
:1018a4006b20696e666f726d6174696f6e00000003
:1018b4006465666e657400003a205365742f47654d
:1018c400742064656661756c7420696e74657266f3
:1018d400616365003a204448435020636c69656e37
:1018e4007420636f6d6d616e647300003a205475eb
:1018f400726e204448435020736572766572206f7f
:101904006e2f6f66660000007a636c6c0000000046
:101914003a205475726e205a434c4c206f6e2f6fd0
:1019240066660000736574646e7300003a20536544
:101934007420444e53206164647265737300000024
:1019440073657469700000003a205365742049502f
:10195400206164647265737320616e64206d6173c9
:101964006b00000073657467770000003a205365cc
:10197400742047617465776179206164647265736a
:101984007300000073657462696f73003a205365d5
:101994007420686f73742773204e657442494f53e3
:1019a400206e616d650000007365746d61630000f5
:1019b4003a20536574204d41432061646472657319
:1019c40073000000696600003a204272696e672065
:1019d400616e20696e746572666163652075702f2f
:1019e400646f776e00000000737461636b00000025
:1019f4003a20537461636b207475726e206f6e2f7e
:101a04006f66660068656170696e666f000000004d
:101a14003a20436865636b20686561702073746164
:101a2400747573006468637073696e666f00000098
:101a34003a20446973706c617920444843502053c0
:101a44006572766572204c656173652044657461c6
:101a5400696c730070696e67000000003a20506979
:101a64006e6720616e2049502061646472657373ef
:101a740000000000617270003a2041525020636ff0
:101a84006d6d616e64730000646e7363000000002a
:101a94003a20444e5320636c69656e7420636f6d05
:101aa4006d616e64730000006d6163696e666f0042
:101ab4003a20436865636b204d414320737461741d
:101ac4006973746963730000616e6e6f756e63652c
:101ad400000000003a20416e6e6f756e6365000071
:020000040000fa
:020000040040ba
:041ae4000020704727
:020000040000fa
:020000040040ba
:101ae8002de9f04f2ded068bcfb00c4605919346ae
:101af8000a9311901ff030fc03681793184614f0ee
:101b08005bfea38915901d0603d52369002b01f000
:101b1800518100239fed7a8b9fed7b9b0f9324933c
:101b280023931493199312931893169303935e4671
:101b380025abdff8dca1ddf844b022939946337871
:101b48003446e3b1252b02d119e0252b03d014f834
:101b5800013f002bf9d1a51b8db1239b249ac9f80d
:101b6800006001332a44072bc9f8045024922393b8
:101b780000f39d8009f10809039b2b440393237804
:101b8800002b01f0ca8000234ff0ff3298460793dc
:101b98008df86b30671c637804922b24202501375d
:101ba800a3f120025a2a00f2e483dfe812f0a5022a
:101bb800e203e203ae02e203e203e2035f00e203b0
:101bc800e203b202bf02e2037c00cd02e203e702b5
:101bd800d203d203d203d203d203d203d203d20355
:101be800d203e203e203e203e203e203e203e203d5
:101bf8004a03e2037c0392034a034a034a03e203cb
:101c0800e203e203e203eb02e203e203ef02e20390
:101c1800e203e2030003e2032703e203e203940280
:101c2800e203e203e203e203e203e203e203e20384
:101c38004a03e2037c0354024a034a034a03c302e9
:101c480054025b00e203b003e203ba032302380341
:101c58005b00e203000376003e02e203e203b30006
:101c6800e203760048f020083b7898e758461ff0d2
:101c780073fb43681693184614f09efd1890584657
:101c88001ff06afb83681293189b33b1129b23b130
:101c9800129b1b78002b41f083803b787fe7079ae3
:101ca8000a935242079248f004083b7877e722aa41
:101cb8000599584613f0e2fb80b90df194095be7ea
:101cc80022aa0599584613f0d9fb002800f0828112
:101cd800099b1bb1099911980ef0a8fe059bb3f951
:101ce8000c3013f0400f039b18bf4ff0ff330393e2
:101cf80003984fb0bdec068bbde8f08faff30080c2
:101d08000000000000000000ffffffffffffef7f63
:101d18004c1d42000d9318f0200fb44b149340f063
:101d2800e1810a9a18f0100f134640f09d8518f0cb
:101d3800400f41f01d8018f4007f00f095850433b2
:101d480014780a93002518f0010f0bd054ea050304
:101d580008d030239df834208df86d2048f0020813
:101d68008df86c3028f48061022300228df86b20f6
:101d78000498421c00f0908154ea050221f0800882
:101d880040f08f81002840f00984002b40f0a284a5
:101d980011f001034eae089302d0302306f8013d3e
:101da8000023089a0993139310930e93049b93426c
:101db800b8bf13469df86b20029312b1029b013302
:101dc800029318f002030b9302d0029b0233029392
:101dd80018f084030c9340f0ea82079b02995c1a7e
:101de800002c40f3e482102c2499239a804d25dda1
:101df80048461023c146b046059e04e0103c102c0e
:101e080000f1080017dd01321031072a24912392ce
:101e180005604360f2dd22aa31465846069313f066
:101e28002dfb00287ff454af103c102c2499239ae2
:101e3800069b25a8e7dc4646c8468146013263185a
:101e4800072a24932392c9f80050c9f8044000f3e4
:101e58008f849df86b2009f1080972b1239a013229
:101e680001330df16b000121072a2493239289e89d
:101e7800030000f3a98309f108090b9a6ab1239ab0
:101e8800013202331ba80221072a2493239289e8ee
:101e9800030000f3a58309f108090c9a802a00f0d1
:101ea800eb82049a0899541a002c36dd102c239ad8
:101eb80026dd49461025a146059c06e0a9f1100932
:101ec800b9f1100f01f1080118dd01321033072aaa
:101ed80024932392c1f800a04d60efdd22aa214689
:101ee800584613f0cbfa00287ff4f2aea9f1100996
:101ef800b9f1100f249b239a25a9e6dc4c468946a4
:101f080001322344072a24932392c9f800a0c9f870
:101f1800044000f34d8309f1080918f4807f40f06c
:101f28004f82239a0898c9f8006001320344072aaf
:101f38002493c9f80400239200f3248309f10809c3
:101f480018f0040f3bd0079a0299541a002c36dd7a
:101f5800102c239a264d1fdd1026ddf8148004e08e
:101f6800103c102c09f1080916dd01321033072a3c
:101f78002493239289e86000f2dd22aa414658465c
:101f880013f07cfa00287ff4a3ae103c102c249b9d
:101f9800239a0df19409e8dc01322344072a24939b
:101fa8002392c9f80050c9f8044008dd22aa05990f
:101fb800584613f063fa00287ff48aae249b039aec
:101fc800079902988142acbf521812180392002b4d
:101fd8007ff476ae00232393099b1bb109995846d9
:101fe8000ef024fd0df194093e46a8e57ce1410080
:101ff8003c1d420018f0200f0d9340f0ce800a9a45
:1020080018f0100f134640f0198418f0400f40f0f4
:10201800a28618f4007f00f01184043314780a9320
:10202800002528f4806100239fe641468e060d9323
:1020380000f1ea800a9acd06134600f105844c06a1
:1020480000f18f86880540f1ff831478043200255b
:1020580001230a9289e641468c060d9300f13f81df
:10206800c80600f1f8834a0600f188868b0540f11e
:10207800f2830a9890f90040e517043022462b466f
:102088000a90002a73f10003c0f239810498421cb7
:102098004ff001037ff470ae54ea050200f07f822e
:1020a8008846012b00f01e83022b40f0a88214986a
:1020b8004eae230904f00f0143ea05732a091c46b2
:1020c8001546435c06f8013d54ea0503f1d14eabd1
:1020d8009b1b089364e60d9318f0200fb54b1493df
:1020e8003ff41fae0a9d073525f0070303f10802e8
:1020f8000a92d3e9004526e69df86b30002b7ff461
:10210800ccad8df86b503b7849e548f001083b7839
:1021180045e50a990b6807931a46002a0b4603f10e
:102128000403fff6bcad0a933b7838e58df86b40a5
:102138003b7834e53b78682b03bf7b7848f400781c
:10214800013748f040082ae53b782a2b07f10101be
:1021580001f01c81a3f13002092a0f4601f24a80de
:102168000023194617f8013b01eb810102eb4101fd
:10217800a3f13002092af5d9049111e548f0800845
:102188003b780ce548f008083b7808e548f010086b
:1021980018f0200f0d933ff432af0a9d073525f054
:1021a800070303f108020a92d3e9004539e70a9abe
:1021b8000d93166800248df86b40151d002e00f055
:1021c8003d87049a531c00f09b862146304616f042
:1021d80033fc0990002800f08287099b04949b1b1c
:1021e8001a4622eae27208930a9523460292099354
:1021f800139310930e939df86b20dee548f01001c1
:102208008e060d937ff516af0a9d073525f0070357
:1022180003f10802d3e900450a920123a5e50a98cb
:10222800654b046814933022782304308df86d30a0
:102238000d9348f002010a9000258df86c200223c6
:1022480093e50a9d0d9318f0080f05f1070500f0b6
:10225800ed8425f0070393ed008b03f108020a9241
:10226800b0eec87bb4ee497bf1ee10fa40f3398446
:10227800b5eec08bf1ee10fa00f1f0869df86b20f8
:102288004e4e0d9c0323002118460293331f0991db
:1022980028f08008472cd8bf1e4608900491139157
:1022a80010910e9189e50a980d9301688df8d41064
:1022b800002301461a468df86b300431012302933e
:1022c80009920492139210920e920a91089335aed5
:1022d80077e548f010018c060d937ff5c1ae0a9d95
:1022e800073525f00705d5e90023002a05f1080080
:1022f8001d4673f100030a901446bff6c7ae2d239e
:1023080064428df86b3065eb4505012330e53b7879
:102318006c2b03bf7b7848f02008013748f0100881
:102328003de418f0200f40f0098518f0100f35d162
:1023380018f0400f40f0788618f4007f2ed00a9ae3
:10234800136804320a929df80c201a703e46fff773
:10235800f6bba3f130020023194617f8013b01eb45
:10236800810102eb4101a3f13002092af5d9079155
:1023780016e419460d93002b00f0cf8400230120aa
:102388001a4602908df8d4108df86b300993049397
:10239800139310930e93089035ae12e50a9a1368ba
:1023a80004320a92039a1a603e46fff7c8bb249b80
:1023b80053e500bf68e141007ce141005ce1410078
:1023c8000d9a652a40f39680b5ee408bf1ee10fa2f
:1023d80040f03981239ac249c9f80010013201330b
:1023e8000121072a24932392c9f8041000f3448496
:1023f80009f108091c9b0f9a9342249b03db18f0f0
:10240800010f3ff49dad239a15981799c9f800104c
:1024180001320344072ac9f804002493239200f3e5
:10242800b28409f108090f9a541e002c7ff788ad71
:10243800102c239a40f308831025059e05e009f126
:102448000809103c102c40f3ff8201321033072a90
:1024580024932392c9f800a0c9f80450efdd22aafa
:102468003146584613f00af800287ff431ac249b13
:10247800239a0df19409e4e7079a0299541a002c5b
:102488007ff70fad102c239a26dd49461025a1466b
:10249800059c06e0a9f11009b9f1100f01f1080136
:1024a80018dd01321033072a24932392c1f800a0c3
:1024b8004d60efdd22aa2146584612f0dfff0028c2
:1024c8007ff406aca9f11009b9f1100f249b239ae7
:1024d80025a9e6dc4c46894601322344072a249381
:1024e8002392c9f800a0c9f8044000f3e68209f174
:1024f8000809d6e40f9ac9f80060012a239a03f163
:10250800010302f101024ff0010124932392c9f85b
:10251800041040f3a582072a00f3b58209f10809df
:1025280015981799c9f8001001320344072a249313
:102538002392c9f8040000f3b38209f10809b5ee43
:10254800408bf1ee10fa0f9900f021810139013228
:1025580001360b44072ac9f8006023922493c9f86e
:10256800041000f3468109f108091998c9f8040014
:10257800013203441ea9072a24932392c9f80010a4
:102588007ff7dcac22aa0599584612f077ff00289d
:102598007ff49eab249b0df19409d1e44146012bb5
:1025a80000f03581022b27d18846002400257ee5de
:1025b80022aa0599584612f061ff00287ff488abdb
:1025c800249b0df19409a8e422aa0599584612f013
:1025d80055ff00287ff47cab249b0df194094ce453
:1025e80022aa0599584612f049ff00287ff470abdb
:1025f800249b0df1940950e48846002400254ea937
:1026080000e03146e20842ea4572e80804f00703b0
:1026180005461446303354ea050201f8013c01f13d
:10262800ff36eed118f0010f3ff451ad302b3ff4d7
:102638004ead3023023906f8013c4eab5b1a0893c5
:102648000e46fff7adbb1c99002940f32f830e9a65
:102658000f998a42a8bf0a46002a14460ddd239a1c
:10266800c9f8006001322344072a2493c9f80440ba
:10267800239200f3cc8409f108090e9a002ca8bf14
:10268800121b002a144640f30081102c239a40f3b1
:10269800d88249461025a146059c06e00831a9f1d3
:1026a8001009b9f1100f40f3ca8201321033072a1a
:1026b80024932392c1f800a04d60efdd22aa2146a1
:1026c800584612f0dbfe00287ff402ab249b239ac5
:1026d80025a9e4e7049b08934eaefff761bb00bf52
:1026e80098e14100002d08bf0a2cc0f08f8008f443
:1026f800806300220297cdf81890cdf820b04eae36
:10270800c346ddf84890174698460ae0002320465d
:1027180029460a221df05ef904460d4654ea0503cf
:102728007ed00a220023204629461df053f9303274
:1027380006f8012c0137013eb8f1000fe6d099f8f0
:1027480000309f42e2d1ff2fe0d0002d08bf0a2cb5
:10275800dcd3189b1699f61a30461a4619f0aefcc7
:1027680099f80170002fd1d009f101090027cde7b0
:1027780022aa0599584612f081fe00287ff4a8aadb
:102788009df86b20249b0df19409fff766bb4c1e46
:10279800002c7ff7eaae102c20dd1025059e04e002
:1027a800103c102c09f1080918dd01321033072af2
:1027b80024932392c9f800a0c9f80450f0dd22aa96
:1027c8003146584612f05afe00287ff481aa103c80
:1027d800102c249b239a0df19409e6dc0132234442
:1027e800072a24932392c9f800a0c9f804407ff768
:1027f800baae22aa0599584612f040fe00287ff486
:1028080067aa249b239a0df19409aee641464eae81
:1028180030340123884606f8014d0893fff7c0ba03
:102828004eab9b1bcdf84890d8460f97ddf820b0eb
:10283800ddf81890029f0893fff7b2ba1c680433ba
:102848000a930025fff7edbb04321c680a920123a6
:102858000025fff78aba0a9a146813460433e51765
:102868000a9322462b460ce41c6804330a9300257d
:10287800fff769ba22aa0599584612f0fffd002809
:102888007ff426aa249b0df194090e9a18f4806f00
:102898003244154600f083800f9908961846109b1d
:1028a800cdf82c8071180491069749461646ddf834
:1028b8006090ddf84c80059d002b5fd0b8f1000fcb
:1028c80000f0088108f1ff38239b169a0a6001334b
:1028d8004844072b2490c1f80490239300f3c88040
:1028e8000831129a049c1378a41b9c42a8bf1c466a
:1028f800002c0bdd239b0e6001332044072b249012
:102908004c60239300f3ab8113780831002cacbfe3
:102918001c1b1c46002c2ddd102c239a1ddd1027b6
:1029280004e0103c102c01f1080116dd01321030d2
:10293800072a24902392c1f800a04f60f1dd22aa53
:102948002946584612f09afd00287ff4c1a9103c88
:10295800102c2498239a25a9e8dc01322044072a60
:1029680024902392c1f800a04c6000f39181129b3f
:102978001b7808311e44109b002b9fd1b8f1000f23
:10298800a0d134460f9a089e069fddf82c80b21815
:1029980094428946214628bf114603460d461c9a93
:1029a8000f998a4280f201822399159c1798c9f8d9
:1029b80000000131234407292493c9f804402391d6
:1029c80000f38d8209f108090f997418641b8a1a9b
:1029d8009442a8bf1446002c0ddd2399c9f8005075
:1029e8000131234407292493c9f80440239100f3b3
:1029f800bc8309f10809002cacbf141b1446002c39
:102a08007ff79eaa102c239a1edd1025059e04e050
:102a180009f10809103c102c16dd01321033072a81
:102a280024932392c9f800a0c9f80450f0dd22aa23
:102a38003146584612f022fd00287ff449a9249b0c
:102a4800239a0df19409e5e701322344072a2493d8
:102a58002392c9f800a0c9f804407ff76faa91e54e
:102a680018f0010f7ff457ad072a7ff77cadc0e659
:102a780022aa2946584612f001fd00287ff428a909
:102a8800249825a92de722aa0599584612f0f6fca4
:102a980000287ff41da9249b239a0df194093fe592
:102aa80022aa0599584612f0e9fc00287ff410a9db
:102ab800249b239a0df1940941e522aa05995846c9
:102ac80012f0dcfc00287ff403a9249b0df1940983
:102ad800fff7e7b9129b013b1293109b013b109340
:102ae800f2e6b4ee488bf1ee10fa80f1e3830d9b29
:102af800612b00f0b882412b00f07881049b0133f0
:102b08000d9b23f0200500f09d83472d04d1049be5
:102b1800002b08bf0123049318ee903a48f4807202
:102b2800002b02924ff00003c0f2b882b0ee48ab1f
:102b3800069309930d9b662b00f0ef82462b00f05d
:102b4800d883b0ee4a0b452d0abf049b049c5c1c3d
:102b580020aa1dab0192009322461cab02215846c5
:102b680003f01afe0d9b672b064640f0958318f07c
:102b7800010f40f04383209bc6469b1bddf808806d
:102b88000f93472d00f0cf810d9b462b00f0b382a9
:102b9800652b40f312840d9b662b00f0ac821c9bc6
:102ba8000e930f9b0e9a19469142134600f36082ca
:102bb8001ef0010f00f06383159a134408931ef466
:102bc800806f00f010830e9b002b40f30c8367236b
:102bd8000d9312980e9a0023139310930378ff2bea
:102be8000ed09a420cdd4178d21a002900f0848177
:102bf800109b013310930b46ff2b00f10100f0d11d
:102c08000e92109b139a089912901344189a02fb7b
:102c18000313089323eae3730293069b002b40f007
:102c28007b8104939df86b20fff7c7b825f0070553
:102c380005f1080395ed008b0a93fff711bb4c468d
:102c4800894601322344072a24932392c9f800a015
:102c5800c9f804403ff70eae09f1080915e622aaa3
:102c68002946584612f00afc00287ff431a8129b26
:102c780024981b7825a949e622aa0599584612f0f6
:102c8800fdfb00287ff424a80df19409fff7b2bbdf
:102c980022aa2946584612f0f1fb00287ff418a80a
:102ca800129b24981b7825a91e4464e6239ac248df
:102cb800c9f80000013201330120072a2493239226
:102cc800c9f8040000f3858009f1080929b90f9aa9
:102cd8001ab918f0010f3ff433a9239a159c1798d5
:102ce800c9f8000001322344072a2493c9f8044094
:102cf800239200f36a8209f108090029c0f244828c
:102d08000f98c9f8006001320344072a24932392dc
:102d1800c9f804007ff712a934e4249b002b3ef481
:102d2800ddaf059c119822aa214612f0a7fb0028c6
:102d38003ef4d4afb4f90c30fef7d3bf0a9a039926
:102d48001368cd170846043229460a92c3e90001e0
:102d58003e46fef7f4be043314880a930025fff7b5
:102d680060b914880432002501230a92fef7fdbfda
:102d7800043314880a930025fef7e5bf0a98b0f9d2
:102d88000040fff779b922aa0599584612f076fb58
:102d980000287ef49daf249b0df19409fff743bbf7
:102da80048f480683b78fef7fabe18f0010f3ff44c
:102db8000baef9e54021119807f0dcfc059a10608c
:102dc8001061002800f0f182059a40235361fef754
:102dd800a0be22aa0599584612f050fb00287ef49e
:102de80077af1c99249b0df194096fe730238df878
:102df8006c3058238df86d30049b632b48f0020427
:102e080000f340820023099335ae18ee903a002b68
:102e18000d9b48f481720292a04623f02005c0f26f
:102e28003e81b0ee48ab002306930d9b612b00f06a
:102e3800ec81412b7ff47eaeb0ee4a0b1ca817f054
:102e48006ffcb4ee007b20ee070bb5ee400bf1ee05
:102e580010fa01d101231c93584c049bb3ee005b7c
:102e6800013b314605e0b5ee400bf1ee10fa14d007
:102e7800114620ee050bfdeec06b0a4616ee900ad1
:102e8800b3f1ff3f205c02f8010bb8eee67b184671
:102e980030ee470b03f1ff33e5d1b6ee007bb4ee1d
:102ea800c70bf1ee10fa00f3ff80b4ee470bf1ee1a
:102eb80010fa04d116ee903adb0700f1f5800028ed
:102ec80007db1418302301f8013fa142fbd1013080
:102ed8000244931bc6460f93ddf8088051e622aae8
:102ee8000599584612f0cafa00287ef4f1ae1c9ae9
:102ef800249b0df1940967e51399013113916ee64e
:102f08003046049413f058fc20eae07208900a95c1
:102f180002922346fff76bb92d2200238df86b2010
:102f28000493fef74bbf1c9b0e93da1c03db049a39
:102f380093427ff736ae0d9b023b0d9323f020059d
:102f48000e9b412d03f1ff331c9300f059819df82e
:102f580034200021002bb8bf0e9b8df87820babf13
:102f6800c3f101032d222b22092b8df8792040f380
:102f78005d810df187042046114d00e0104685fb68
:102f88000312d917c1eba20101eb8102a3eb4202a4
:102f98003032092900f8012c0b4600f1ff32eddc34
:102fa80030330238dbb2844202f8013c40f2fa8145
:102fb8000df17a00114607e098e1410068e141000f
:102fc8006766666611f8013b00f8013b8c42f9d14f
:102fd8000134a21a0df17a031a441eabd31a0f9ac0
:102fe8001993012a1344089340f3ad81089b159a5d
:102ff800134408930023139310930e93089b2ef405
:10300800806e23eae3734ef48078029305e622aae1
:103018000599584612f032fa00287ef459ae249bde
:103028000df19409fff729bb0a9a136804320a9232
:10303800bdf80c201a803e46fef781bd049b13960e
:10304800062b28bf06233246049610960e9609963c
:1030580002930a950893ae4efef7afbe2d228df867
:103068006b20fff70db930238df86c307823c1e65b
:103078000f9b159a134408930e9b002b40f34e8127
:1030880067230d931ef4806f7ff4a3ad089b23ea9a
:10309800e3730293002313931093bee509932d2342
:1030a8000693b1ee48abc0e6209112f8010ce37b21
:1030b800834240f0508113464ff0300e03f801ec84
:1030c800209b591e209113f8011c8142f6d0392902
:1030d80016bf0131a17ac9b203f8011cf9e6049bb5
:1030e8000293089304900a95139010900e909df8ff
:1030f8006b20fef762be1c9b0e93002b049b40f3d3
:103108002d81002b40f0ec801ef0010f40f0e8808c
:103118000e9b089366230d93b4e7049cb0ee4a0b0c
:1031280020aa1dab0192009303211cab22465846ee
:1031380003f032fb064601193378302b00f0f98092
:103148001c9c2144b5ee40abf1ee10fa0bd0209b4d
:1031580099427ff611ad30205a1c20921870209b9e
:103168009942f9d808e50b4606e522aa059958467a
:1031780012f084f900287ef4abad1c9a0f99249bb9
:103188008a1a0df1940936e44c4210315dda1025a3
:1031980004e009f10809103c102c56dd0132103307
:1031a800072a24932392c9f800a0c9f80450f0dd37
:1031b80022aa0599584612f061f900287ef488add4
:1031c800249b239a0df19409e5e722aa059958460c
:1031d80012f054f900287ef47bad1c99249b239aa5
:1031e8000df1940989e5089b23eae37302936723a9
:1031f8000d934fe700220492fef7d2bc3119a1e7e4
:103208000d9a0f32d2b20121a4e6b0ee4a0b1ca8e7
:1032180017f086fab4ee007b20ee070bb5ee400bf4
:10322800f1ee10fa00f0af803a4c16e6002940f0b3
:103238008f8030228df87a200df17b0230331370a5
:103248000132cae60623049366e401322344072abe
:10325800c9f800a0c9f804402493239209f1080989
:103268007ff74ead22aa0599584612f007f90028b3
:103278007ef42ead249b239a0df1940940e50e9b14
:1032880008939ce4591c584607f074fa064600282f
:1032980000f096800990b8e50d9b472baed118f049
:1032a800010f3ff468ac0d9b462b06eb04013ff47d
:1032b80043af47e7184e0d9c9df86b200023194635
:1032c80003200993331f0491029028f08008472cab
:1032d800d8bf1e46139110910e910890fef76dbd50
:1032e800159a0e9b1344049a1a44662308920d9368
:1032f800c8e6049cb0ee4a0b20aa1dab01920093cd
:1033080022461cab0321584603f046fa0646cae794
:1033180090e141007ce1410064e14100089ac3f179
:1033280001031a4422eae2730293672308920d9379
:10333800b0e6b5ee40abf1ee10fa3ff401afc4f1e0
:1033480001041c94fde61ef0010f3ff453ae4de658
:103358000df17a0272e701461346b8e613b91ef07a
:10336800010f0ad0159b049a01331a4422eae2732a
:103378000293662308920d938ce601230293089327
:1033880066230d9386e601231c934de70a987b7804
:10339800026842eae2720492024604320f460a9236
:1033a800fef7fdbb0df17a0217e6119a0c231360a4
:1033b8004ff0ff330393fef79bbc1c9b0e93bfe5b6
:1033c800059ab2f90c3043f040039381fef789bcab
:020000040000fa
:020000040040ba
:1033d800d01b40201c00000000000000841d40207d
:1033e8000400000000000000881d402004000000c8
:1033f800000000008c1d40200400000000000000b8
:10340800d81a40202800000000000000901d40202d
:103418000400000000000000081c40201800000004
:1034280000000000941d402004000000000000007f
:10343800981d402004000000000000009c1d402052
:103448000400000000000000a01d4020040000004f
:1034580000000000381c402014000000000000009c
:10346800a41d40200400000000000000a81d40200a
:103478000400000000000000041f402002000000bb
:1034880000000000ac1d4020040000000000000007
:10349800b01d40200400000000000000b41d4020c2
:1034a8000400000000000000b81d402004000000d7
:1034b80000000000821d4020020000000000000003
:1034c8009a1740200200000000000000bc1d4020a8
:1034d8000400000000000000c01d4020040000009f
:1034e80000000000c41d402004000000000000008f
:1034f800c81d40200400000000000000cc1d402032
:103508000400000000000000d01d4020040000005e
:10351800000000003a1d40200200000000000000ea
:10352800061f40200200000000000000d41d4020bb
:103538000400000000000000d81d40200400000026
:1035480000000000dc1d4020040000000000000016
:10355800e01d402004000000000000004c1c40203a
:103568001400000000000000e41d402004000000da
:1035780000000000081f40200200000000000000ba
:10358800e81d40200400000000000000201a402030
:1035980048000000000000007c1d402006000000dc
:1035a80001000000ffffffffffff000000004020b8
:1035b8000800000000000000681a402038000000e1
:1035c8000000000054154020a0000000000000008a
:1035d8000a1f402002000000010000000100000056
:1035e800601c40201400000000000000ec1d40207a
:1035f8000400000000000000f01d4020040000004e
:1036080000000000901b40201f0000000000000088
:10361800f41d40200400000000000000f81d4020b8
:1036280004000000000000000c1f40200200000001
:1036380000000000fc1d4020040000000000000005
:10364800b4004020d007000000000000001e402009
:103658000400000000000000041e402004000000d8
:1036680000000000081e40200400000000000000c8
:103678000c1e402004000000000000000e1f402027
:103688000200000000000000101e4020040000009e
:1036980000000000281d402011000000000000006c
:1036a800b01b40201f00000000000000141e402036
:1036b8000400000000000000181e40200400000064
:1036c800000000001c1e4020040000000000000054
:1036d800201e40200400000000000000af1b402016
:1036e8000100000000000000cf1b40200100000086
:1036f8000100000001000000241e4020040000001a
:1037080001000000640000000800402004000000e0
:1037180000000000001b40202800000000000000fe
:1037280018ff4520d800000000000000281e402097
:10373800040000000000000099174020010000006c
:10374800000000002c1e40200400000000000000c3
:103758000c0040203400000000000000301e402013
:103768000400000000000000341e40200400000097
:1037780000000000741c402014000000000000003d
:10378800391d40200100000000000000101f4020eb
:103798000200000000000000121f4020020000008c
:1037a80000000000381e4020040000000000000057
:1037b800881c402014000000000000003c1e40202f
:1037c800040000000000000040004020300000001d
:1037d80000000000401e402004000000000000001f
:1037e800441e40200400000000000000f0ff4520b7
:1037f8001000000000000000481e402004000000e7
:1038080000000000641d40200800000000000000c7
:10381800881640209000000000000000900f402013
:1038280050020000000000004c1e40200400000070
:1038380000000000501e40200400000000000000ae
:10384800541e40200400000000000000581e4020c4
:1038580004000000000000005c1e4020040000007e
:1038680000000000601e402004000000000000006e
:10387800641e402004000000000000003c1d4020a1
:1038880010000000000000009c1c402014000000f4
:1038980000000000501b4020200000000000000035
:1038a800161f40200100000000000000681e402094
:1038b80004000000000000006c1e4020040000000e
:1038c80001000000ffffffff701e40200400000001
:1038d80000000000741e40200400000000000000ea
:1038e800171f402001000000000000006c1d402050
:1038f8000800000001000000ffffffffffffffffbf
:10390800700040202a000000000000009c004020b9
:103918000400000000000000781e402004000000a1
:1039280000000000181f40200100000000000000f7
:103938008c0c402004030000010000008cca4100e8
:10394800000000000000000000000000000000006f
:10395800000000000000000000000000000000005f
:10396800000000000000000000000000000000004f
:10397800000000000000000000000000000000003f
:103c480000f04520f000000000000000c8194020e6
:103c58005800000000000000e011402008020000a9
:103c680000000000ec1b40201c00000001000000c8
:103c780000000000249e4100309e4100f49d410058
:103c8800249e4100249e410001000000a01a40200b
:103c98003800000001000000bc9d4100c49d4100a7
:103ca800d09d4100e49d4100f49d4100049e4100e7
:103cb800049e4100149e41001c9e41000900000022
:103cc8008cca410000000000000000000000000055
:103cd800b01c402014000000010000000101000099
:103ce8001d1d42000d1d42002d1d4200c0fd00009b
:103cf800a000402010000000000000007c1e4020b2
:103d08000400000000000000701b4020200000009c
:103d180000000000801e4020040000000000000099
:103d2800841e40200400000000000000881e40207f
:103d380004000000000000008c1e40200400000069
:103d480000000000141f40200200000000000000d6
:103d5800901e40200400000000000000941e402037
:103d68000400000000000000981e4020040000002d
:103d7800000000009c1e402004000000000000001d
:103d8800f415402094000000000000009c1840201a
:103d980064000000000000004c1d40200c000000e2
:103da800000000000019402064000000000000002e
:103db800201c40201800000000000000741d402056
:103dc8000800000000000000a01e402004000000c1
:103dd800000000009c174020800000000000000048
:103de800581d40200c00000000000000f0f04520a5
:103df800000a000000000000a41e4020040000008b
:103e0800000000001c184020800000000000000096
:103e1800181740208100000000000000a81e402064
:103e28000400000000000000ac1e40200400000058
:103e380000000000b01e4020040000000000000048
:103e4800641940206400000000000000b41e4020f7
:103e58000400000000000000b81e4020040000001c
:103e680000000000bc1e402004000000000000000c
:103e7800c01e40200400000000000000c41e4020b6
:103e88000400000000000000c81e402004000000dc
:103e980000000000c41c40201400000000000000c6
:103ea800d81c40201400000000000000cc1e402058
:103eb8000400000000000000d01e402004000000a4
:103ec80000000000d41e4020040000000000000094
:103ed800ec1c40201400000000000000d81e402008
:103ee8000400000000000000001d40201400000035
:103ef80000000000141d4020140000000000000015
:103f0800dc1e40200400000000000000e01e4020ed
:103f18000400000000000000e41e4020040000002f
:103f280001000000aaaaaaaae81e40200400000076
:103f380001000000f0fa4520f0fa452028040000ae
:103f48000100000000000000dcfd452044fe452083
:103f5800acfe45200000000000000000000000004a
:103f68000000000000000000000000000000000049
:103f78000000000000000000000000000000000039
:103f88000000000000000000000000000000000029
:103f98000000000000000000000000000000000019
:103fa8000000000000000000000000000000000009
:103fb80000000000000000000000000000000000f9
:103fc80000000000000000000000000000000000e9
:103fd80000000000000000000000000000000000d9
:103fe80000000000000000000000000001000000c8
:103ff800000000000e33cdab34126de6ecde050098
:104008000b0000000000000000000000000000009d
:104018000000000000000000000000000000000098
:104028000000000000000000000000000000000088
:104038000000000000000000000000000000000078
:104048000000000000000000000000000000000068
:10436800000000000000000000000000e8134020ea
:104378006c01000001000000430000000000000084
:104388000000000000000000000000000000000025
:1043980000000000000000004300000000000000d2
:1043a8000000000000000000000000000000000005
:1043b80000000000000000004300000000000000b2
:1043c80000000000000000000000000000000000e5
:1043d8000000000000000000430000000000000092
:1043e80000000000000000000000000000000000c5
:1043f8000000000000000000430000000000000072
:1044080000000000000000000000000000000000a4
:104418000000000000000000430000000000000051
:104428000000000000000000000000000000000084
:104438000000000000000000430000000000000031
:104448000000000000000000000000000000000064
:10445800000000000000000045134200a5ff4100d5
:10446800000000008c4d4100041b4200001b42006c
:10447800001b4200001b4200001b4200001b4200c0
:10448800001b4200001b4200001b4200001b4200b0
:10449800ffffffffffffffffffffffffffff000022
:1044a800010041534349490000000000000000009a
:1044b80000000000000000000000000000000000f4
:1044c800000041534349490000000000000000007b
:1044d80000000000000000000000000000000000d4
:1044e80000000000281b40202800000000000000f9
:1044f800ec1e40200400000000000000f01e4020d8
:104508000400000000000000f41e40200400000029
:10451800000000008408402008040000010000009a
:1045280000000000000000008408402084084020ab
:104538008c0840208c084020940840209408402093
:104548009c0840209c084020a4084020a408402043
:10455800ac084020ac084020b4084020b4084020f3
:10456800bc084020bc084020c4084020c4084020a3
:10457800cc084020cc084020d4084020d408402053
:10458800dc084020dc084020e4084020e408402003
:10459800ec084020ec084020f4084020f4084020b3
:1045a800fc084020fc084020040940200409402061
:1045b8000c0940200c09402014094020140940200f
:1045c8001c0940201c0940202409402024094020bf
:1045d8002c0940202c09402034094020340940206f
:1045e8003c0940203c09402044094020440940201f
:1045f8004c0940204c0940205409402054094020cf
:104608005c0940205c09402064094020640940207e
:104618006c0940206c09402074094020740940202e
:104628007c0940207c0940208409402084094020de
:104638008c0940208c09402094094020940940208e
:104648009c0940209c094020a4094020a40940203e
:10465800ac094020ac094020b4094020b4094020ee
:10466800bc094020bc094020c4094020c40940209e
:10467800cc094020cc094020d4094020d40940204e
:10468800dc094020dc094020e4094020e4094020fe
:10469800ec094020ec094020f4094020f4094020ae
:1046a800fc094020fc094020040a4020040a40205c
:1046b8000c0a40200c0a4020140a4020140a40200a
:1046c8001c0a40201c0a4020240a4020240a4020ba
:1046d8002c0a40202c0a4020340a4020340a40206a
:1046e8003c0a40203c0a4020440a4020440a40201a
:1046f8004c0a40204c0a4020540a4020540a4020ca
:104708005c0a40205c0a4020640a4020640a402079
:104718006c0a40206c0a4020740a4020740a402029
:104728007c0a40207c0a4020840a4020840a4020d9
:104738008c0a40208c0a4020940a4020940a402089
:104748009c0a40209c0a4020a40a4020a40a402039
:10475800ac0a4020ac0a4020b40a4020b40a4020e9
:10476800bc0a4020bc0a4020c40a4020c40a402099
:10477800cc0a4020cc0a4020d40a4020d40a402049
:10478800dc0a4020dc0a4020e40a4020e40a4020f9
:10479800ec0a4020ec0a4020f40a4020f40a4020a9
:1047a800fc0a4020fc0a4020040b4020040b402057
:1047b8000c0b40200c0b4020140b4020140b402005
:1047c8001c0b40201c0b4020240b4020240b4020b5
:1047d8002c0b40202c0b4020340b4020340b402065
:1047e8003c0b40203c0b4020440b4020440b402015
:1047f8004c0b40204c0b4020540b4020540b4020c5
:104808005c0b40205c0b4020640b4020640b402074
:104818006c0b40206c0b4020740b4020740b402024
:104828007c0b40207c0b4020840b4020840b4020d4
:104838008c0b40208c0b4020940b4020940b402084
:104848009c0b40209c0b4020a40b4020a40b402034
:10485800ac0b4020ac0b4020b40b4020b40b4020e4
:10486800bc0b4020bc0b4020c40b4020c40b402094
:10487800cc0b4020cc0b4020d40b4020d40b402044
:10488800dc0b4020dc0b4020e40b4020e40b4020f4
:10489800ec0b4020ec0b4020f40b4020f40b4020a4
:1048a800fc0b4020fc0b4020040c4020040c402052
:1048b8000c0c40200c0c4020140c4020140c402000
:1048c8001c0c40201c0c4020240c4020240c4020b0
:1048d8002c0c40202c0c4020340c4020340c402060
:1048e8003c0c40203c0c4020440c4020440c402010
:1048f8004c0c40204c0c4020540c4020540c4020c0
:104908005c0c40205c0c4020640c4020640c40206f
:104918006c0c40206c0c4020740c4020740c40201f
:104928007c0c40207c0c4020f81e40200400000035
:1049380001000000fffffffffc1e402004000000f4
:104948000100000000000200b00040200400000048
:1049580000000000001f40200400000000000000cc
:10496800000000000000000022222222222222222f
:020000040000fa
:020000040040ba
:104978002de9f04f93b00f210a201af04bf9079058
:1049880010f0010f12d1079b13f0020f40f074854d
:1049980013b0bde8f08fb9f8223013f4007f0cd0c3
:1049a8006ff00d010a2248461cf0d8fa0a201bf0c5
:1049b800c1f981460028eed1e5e7d9f81c301c463c
:1049c8000293b9f82060132e40f24385d9f8187085
:1049d80007f110030493fb680f933b6910930022bf
:1049e8008df8442006238df84530330a43ea062320
:1049f800adf846300c210fa817f0fef9c3439bb25f
:104a0800b9f8222012f0040f35d032462146484624
:104a180015f094fa002840f02085029c204616f0f4
:104a2800e2ff94f80cb04fea1b1b4fea8b0babf17b
:104a3800140b1ffa8bf30693d9f81c80d9f828c0f9
:104a4800b8f802b0bbf1000f00f00b85fd89bb89f7
:104a58001d44b8f800301d4485ea0b05adb2c74bbc
:104a68001a68002a00f00185c54bd3f800e000233e
:104a78009a4619460ee01a463146029817f0bcf9d4
:104a8800c8e7206c844512d088b101331bb219469f
:104a980093422ed25ef82140002cf6d094f86e1086
:104aa8000b29f2d094f86f000128eed8e9e741b954
:104ab800b4f86a105945e8d1baf1000f08bfa24608
:104ac800e3e7b4f86a10a942dfd1d8f80000a16d75
:104ad8008842dad1a06bf9688842d6d1012184f8de
:104ae8006f10c4f840c0049a20461af06bfaa24628
:104af8001de0baf1000f00f08c80fb68caf838306e
:104b080001218af86f10caf840c0049a50461af07a
:104b180059faaaf86a50b8f80030aaf85830b8f824
:104b28000230aaf85a30daf80030caf81030d9f84a
:104b380010201389143b06995b1a1381029a547b3f
:104b4800d2f8088055689af8373013f0400f63d1cf
:104b58009af86d306ff300038af86d309af86e306a
:104b6800002b7dd0012b00f0b280069ab61ab6b29f
:104b7800a6f1140292b2069214f001020a9200f011
:104b8800db80133e1ffa86fb14f0020f03d00bf1f3
:104b9800010b1ffa8bfbdaf81c60daf8202096422a
:104ba800c0f0cd80daf81810daf81400091ab21a31
:104bb8008a1a92b20492daf85020af1abbf1000fa9
:104bc80000f0c280049a002a00f0cb80002f01db9d
:104bd80097420ed307eb0b02002a40f3c2800499d8
:104be800a1eb0b029742ccbf002201228f4280f238
:104bf800b58014f0060f00f0cb8014f0040f0cbf42
:104c080000264ff400660021504611f01bff00f00b
:104c18000abc6ff00d01c5e600238af871309af8d6
:104c2800363013f0020f93d119f004ffcde90401d7
:104c3800baf868701df00cf9524ba3fb00231b0c4b
:104c480007fb03f7504ba3fb0737bf094f4a002365
:104c5800dde904011af0befe3844caf8240077e7fb
:104c680014f0040f1ad114f0100f1dd114f0020f14
:104c780027d00135caf85050029812f089f8aaf8de
:104c88006200504619f089fd01221221504604f0b5
:104c9800d5ff02238af86e300026c4e3002150466f
:104ca80011f0d0fe0026bee3caf84c800022042191
:104cb800504604f0c3ff0021504611f0c3fe002601
:104cc800b1e30021504611f0bdfe0026abe314f01d
:104cd800040f40f0a78314f0100f00f09e85daf857
:104ce8004c60b04500f07a85caf84c800122042156
:104cf800504604f0a3ffcaf84c60002693e319f06d
:104d080099fe06460f46baf868401df0a1f81d4bfb
:104d1800a3fb00231b0c04fb03f41b4ba3fb043471
:104d2800a4091a4a0023304639461af053fe204493
:104d3800caf8240000f049bdddf818b024e7921b3a
:104d4800013a92b2049236e7002f3ff452af002f97
:104d580007db049a9742acbf00220122002a7ff4a5
:104d680048af14f0040f01d000265ce301221021a3
:104d7800504604f063ff002655e300bfb81d4020ed
:104d8800b41d4020851dd96fd34d6210f049020033
:104d980014f0100f00f04e83023b072b00f27e81c7
:104da800dfe813f008001d001d001d001d007c0138
:104db8001d006f01daf84c60b0450ad0caf84c8083
:104dc80001220421504604f039ffcaf84c6000263d
:104dd80029e303238af86e304ff4807600e000263a
:104de800daf808300d93daf81020981a14d4daf8a3
:104df8004c30a8eb0301091a00291dddbaf86c0034
:104e080000f40170042801d101290cd000221021de
:104e1800504604f013ff06e3daf80430daf800101d
:104e28005b1a1844e3e70133caf84c309af86d303e
:104e380043f002038af86d30daf84c300b93daf855
:104e48000c00a2eb000ca3eb0c0c824240d2daf867
:104e58000430daf80010a3eb010eaceb0e0ea8eb51
:104e68000e0ebef1000f3bdddaf804301946089348
:104e7800daf80030c91a714530d39af86c3003f06b
:104e8800ef036ff345138af86c309af836306ff3f6
:104e980045138af836307044caf80c000a44904228
:104ea80076d8089b984202d3401acaf80c00daf860
:104eb8001030089a934202d35b1acaf810309af855
:104ec8006e30032b01d0082b33d146f0040630e0b6
:104ed800a8eb0c030c93002b00f3ae84824228d07d
:104ee8009af86c3013f0100f1dd013f0200f14d067
:104ef800caf84cc0824208d2daf80430daf8002046
:104f08009b1aaceb0303caf84c30caf810009af8a5
:104f1800363043f080038af836309af86c3043f024
:104f280020038af86c309af86c3043f010038af842
:104f38006c30daf80c300d9a9a4232d0029bdb8939
:104f4800baf866209a4238bfaaf86630daf84c20d8
:104f5800029bdb8943449b1a9bb2baf85c1031b9b7
:104f68002bb19af8361041f040018af83610aaf8a9
:104f78005c309af86e30042b57d0062b40f08f80a7
:104f8800904540f050820021504611f05bfd4ae206
:104f9800821a0b9b1a44caf84c20caf8100000f079
:104fa80072bc9af8373013f0010f28d113f0400f74
:104fb8001ed019f03ffdcde90801baf868300b930f
:104fc8001cf046ffc749a1fb00131b0c0b9a02fb00
:104fd80003f3c54aa2fb03239b090b93c34a00238f
:104fe800dde908011af0f6fc0b9b1844caf8240006
:104ff8009af836306ff341038af836309ee7daf8cc
:105008004c3098459ad19af86c3013f0040f95d02b
:105018009af836306ff341038af836309af8373009
:105028006ff300038af8373088e7904503d014f00f
:10503800200f43d0f7e19af86c3013f0040ff6d044
:1050480019f0f8fccde908011cf002ffa54ba3fb01
:1050580000231b0c41f2883202fb03f3a24aa2fb95
:1050680003239b090b93a14a0023dde908011af0e9
:10507800b1fc0b9b1844caf8300005238af86e303f
:10508800d5e7daf84c300133984501d00026cae15b
:105098000021504611f0d6fc0026c4e1002614f089
:1050a800200f40f0c0819af86e20a2f10803dbb20d
:1050b800012b40f2b881062a00f0b581069b002b2f
:1050c80000f0a180002f46dd069b3b4404998b42eb
:1050d80002ddcc1ba3b20693029a137b1b0902ebd9
:1050e80083030e93daf81c10daf81820069b3b4469
:1050f8000b449a4280f0fc80531a0133db1b00f109
:10510800e3809ab201240094029213460ea8024644
:105118003944484616f0fdfb0490069b029a9b1af8
:10512800daf8141000949bb20eaa484616f0f1fb68
:10513800049b034498b2069b834264d1daf8543046
:10514800b3f1ff3f40f0dd80caf85470bdf8183065
:10515800aaf8603057e0029a137b1b09c7eb830358
:1051680013440e93069b3b449cb2049ba34228bf66
:1051780023461c46daf81c10daf818300a1993424c
:105188007fd25b1a01330293bdf8082001270097ec
:10519800069213460ea80246484616f0bafb04903b
:1051a800069aa31adaf8141000979bb20eaa48467a
:1051b80016f0affb049a024490b2029be31adaf8a5
:1051c8001420134484421ed1daf850102144caf83e
:1051d8005010caf81c309af86e20033ad2b2022a4c
:1051e80098bf46f40076daf85420b2f1ff3f0ad0af
:1051f800141bcaf85440baf8602012194cd54ff065
:10520800ff33caf85430bbf1000f00f0a8809af8b9
:105218006e30033bdbb2022b03d9daf81c30caf834
:1052280020309af8363013f0100f40f093809af837
:10523800363043f010038af8363013f0080f40f088
:105248008e80dbb243f008038af8363019f0f2fb9f
:10525800cde902011cf0fcfd224ba3fb00231b0c33
:10526800642404fb03f4204ba3fb0434a4091f4a61
:105278000023dde902011af0adfb2044caf82c0036
:105288006de00123009323460eaa484616f041fb21
:10529800daf81c30234495e7002cb4dc1144caf832
:1052a80050101344caf81c30daf81820934206d973
:1052b800daf81410521ad2431344caf81c304ff0cb
:1052c800ff33caf854309ee7781edaf81430d21a41
:1052d800801a01230093069b0eaa0144484616f043
:1052e80018fb28e7851dd96fd34d6210f0490200dd
:1052f80001230093069b0eaa3944484616f009fb81
:1053080019e79f4214d2069ad119baf86020d0182a
:10531800814201d88b4206d9bdf81830aaf860300e
:10532800caf854706fe71344db1baaf86030f7e73c
:10533800baf860201a4406980146394491427ff62b
:1053480062af97423ff65faffb1a01461944aaf8cd
:10535800601058e701221021504604f06ffc0a9ba8
:10536800002b60d0daf8503001335d44ab425ad19b
:10537800caf8503046f480669af86e30023b032b28
:105388002ed8dfe803f0020b334509238af86e3084
:1053980001221121504604f051fc44e008238af808
:1053a8006e3019f047fb04460d461cf051fdd04bfa
:1053b800a3fb00231b0cc82707fb03f7cd4ba3fb5c
:1053c8000737bf09cc4a0023204629461af002fbba
:1053d8003844caf830009af86d3013f0010f22d122
:1053e80001221021504604f029fc1ce0daf84c3068
:1053f800984509d100221021504604f01ffc0021d5
:10540800504611f01ffb0ee006238af86e30e7e7de
:1054180000221021504604f011fc0021504611f0e2
:1054280011fb00e00026baf87220324004d10221b4
:10543800fff7b8ba0026f6e7daf87440ccb1daf824
:105448007830d9f82810baf93400a0470221fff7bc
:10545800a9ba6ff00c01fff7a5ba6ff00901fff7c1
:10546800a1ba6ff00d01fff79dba6ff00d01fff7bc
:1054780099ba0221fff796baa04b1b68002b3ff49c
:1054880087aa00252b469e4fdff864b2dff864a296
:10549800b5e00026b046c4e019f0ccfa964a0023dd
:1054a8001af098faa36ac01a0028a8bf1026bce010
:1054b80019f0c0fa904a00231af08cfae36ac01a6d
:1054c8000028a8bf1026b6e019f0b4fa8a4a0023cb
:1054d8001af080fa236bc31a002bc0f2b18009239b
:1054e80084f86e30112688f001023146204604f017
:1054f800a5fbade019f09efa7f4a00231af06afa7c
:10550800236bc31a002bc0f2a0800122142120466d
:1055180004f094fb0021204611f094fa67e094f817
:10552800366006f001060121204612f017fd94f8b6
:10553800363043f0010384f836304ff480520021ae
:10554800204617f0cbfd002e51d194f836306ff37a
:10555800000384f836300a2384f86e3047e019f0e7
:1055680069fa654a00231af035fa636ac01a0028f6
:105578003ddb94f86e30013b082b00f2fd80dfe83c
:1055880013f00900c100d800e300fb00eb00fb00aa
:10559800fb00f30094f87030032b00f2968002268b
:1055a8004ff0000994f87030013384f87030a36c20
:1055b8005b00a3642169e2688b1a9bb2914204d212
:1055c80061682068091a0b449bb2e16cc91ae1644e
:1055d800b4f85c100b44a4f85c3022610022314618
:1055e800204604f02bfbb9f1000f40f0cb800135c9
:1055f8002db22b46414a12689542bff4c9a93a68b0
:1056080052f82340002cf2d094f86e300b2beed0d9
:1056180094f8363013f0c00f3ff43baf4fead3187d
:10562800102613f0040f7ff437af94f8363013f0d8
:10563800080f7ff43daf94f86e30082b3ff444af69
:1056480094f86e30052b3ff455af002e7ff44baf26
:1056580094f8363013f0020f81d194f8373013f0f4
:10566800400fc4d094f86e30032bc0d119f0e2f982
:10567800214a00231af0aef9636ac31a002bb6db7d
:1056880094f8712094f87c309a423ff448af022293
:105698001021204604f0d2fa19f0ccf98046894648
:1056a800b4f868601cf0d4fbabfb00231b0c06fbb2
:1056b80003f6aafb0636b6090f4a002340464946b8
:1056c8001af088f93044606291e7042384f8703056
:1056d8001cf0befbabfb00231a0c4ff47a7303fbe0
:1056e80002f3aafb03239b091b01a364022657e7c5
:1056f800851dd96fd34d6210f0490200b81d4020b6
:10570800b41d402094f87030022b40f28b8094f83e
:10571800363013f0010314bf142602269946b8f157
:10572800000f7ff43faf01223146204604f086fa8d
:1057380059e794f87030042b76d9042384f86e3036
:1057480011264ff00009eae794f87030042b6dd960
:1057580014264ff00109e2e794f87030042b67d95a
:1057680014264ff00109dae794f87030042b61d958
:1057780014264ff00109d2e7002e3ff438af4ff05e
:105788000009cce70021204611f05cf92fe701352c
:10579800caf850500298c389aaf86630aaf85c3053
:1057a80011f0f6faaaf86200504618f0f6ff012246
:1057b8001021504604f042fa03238af86e309af812
:1057c800373013f0400f7ff49aaa9af836306ff307
:1057d80041038af836304ff4807624e614f0020f3d
:1057e800d5d100261fe60135caf850500298c38962
:1057f800aaf86630aaf85c3011f0cafaaaf8620072
:10580800504618f0caff01221221504604f016fa39
:1058180002238af86e30002605e614f0020fe2d162
:10582800002600e61226bbe61026b9e61126b7e6e2
:105838001026b5e61126b3e6daf804100b460891ef
:10584800daf80010591a0c9b8b423ff647ab9af8ce
:105858006ce00ef0ef0e6ff3451e8af86ce09af8d4
:1058680036e06ff3451e8af836e00c9b1844caf8f8
:105878000c008242bff415ab831a0b9a1344caf882
:105888004c30caf81000089b83427ff60dabfff737
:0458980016bb00bf7c
:020000040000fa
:020000040040ba
:10589c002de9f04f2ded028b9db00f21202019f03a
:1058ac00b7f9002800f06c87c34b1b68002b40f342
:1058bc006787c24b03f1440603f180094ff0000bdc
:1058cc009a465f46be4b03f51d6307939fedbd8a59
:1058dc00ace3d6f88030d3f8904096f88d20f2b136
:1058ec0016f8342c012a4cd0022a6fd136f90c3c14
:1058fc00b3f1ff3f20d00023b34a4ff4007135f9c8
:10590c000c0c1af090f9aa6f022135f90c0c0ff05f
:10591c00b3f958b30621504617f0e2fa79e3d3f8fd
:10592c008c301b68a64a02f2a461204698470121dc
:10593c00504617f0d5fa6ce34a4636f8321c012073
:10594c0012f060fb26f80c0cb0f1ff3fd3d1d6f867
:10595c008030d3f88c301b68994a02f5d961204607
:10596c0098470121504617f0bbfa52e3d5f8803026
:10597c00d3f88c301b68924a02f2ec6120469847af
:10598c00c8e74a4636f8321c01201cf011fc26f8f8
:10599c00080cb0f1ff3f0ad000238c4a4ff4807101
:1059ac001af04afd0321504617f09afa31e3d6f863
:1059bc008030d3f88c301b68814a02f21471204677
:1059cc0098470121504617f08bfa22e3d3f88c301c
:1059dc001b687b4a02f5e761204698470121504637
:1059ec0017f07efa15e3d6f88030d3f89030049394
:1059fc004feaeb0303ebc30203eb4203c3eb43237a
:105a0c0003eb83435b4205936d4b03f5f9630693fc
:105a1c0000f01fbed5f88030d3f88c301b68684a74
:105a2c0002f5ea61049898470421504617f058fa99
:105a3c00efe235f9080c1bf090f8eae2d5f880306b
:105a4c00d3f88c305b68059a5d4901f5ee610498da
:105a5c00984755f81c2c002a55d155f81c3c45f894
:105a6c00183c08a935f9080c16f0aafc35f9080cf5
:105a7c001cf026f91bf09cfb099cd5f88030d3f860
:105a8c008c3035f8322c0292020e0192c0f3074290
:105a9c000092d3f80480c0f30723c2b2484901f541
:105aac00b1610498c047d5f88030d3f88c30bdf87c
:105abc0064200292220e0192c4f307420092d3f8a2
:105acc000480c4f30723e2b23d4901f2bc510498af
:105adc00c0472c60bdf864302b8418f0a9ff3c4af9
:105aec00002319f075ff6864686655f81c3cab65bb
:105afc002b6d6b6555f8143ceb6535f9080c1bf0f8
:105b0c002cf800f0a6bdd5f88030d3f88c305b684b
:105b1c002b4901f29c710498984755f8143c013bb1
:105b2c0055f81c2c134445f8143c96e75b4245f899
:105b3c001c3c18f07dff264a002319f049ffa8648d
:105b4c00002385f888300421504617f0c9f900f07d
:105b5c00b7bd9a1a55f8140c024445f8142c00f0f1
:105b6c00bdbdd5f88030d3f88c301b6806990498ed
:105b7c00984700f0b6bd2b6d4bb995f88b30012bc7
:105b8c0040f047820421504617f0aaf941e218f080
:105b9c004fff0f4a002319f01bff6b6ec31a55f809
:105bac00442c9342e9d92a6d6b6d9a4212d0002194
:105bbc00504608f03ff9e0e72c1e402018ff452026
:105bcc00ec73400000007a44b7184200a118420060
:105bdc00f0490200d5f88030d3f88c301b68d34ada
:105bec0002f5fd610498984718f022ffd04a002373
:105bfc0019f0eefea864002385f888300421504685
:105c0c0017f06ef9b9e736f9080c1af001fc38b93f
:105c1c0096f88b304bb90521504617f061f9f8e135
:105c2c0036f9080c1af099fff3e10921504617f0e8
:105c3c0057f9eee196f88930002b00f0ef8035f93a
:105c4c00080c1af0e5fb002840f0f08095f888303d
:105c5c005a1c85f888200a2b00f2ed80802135f93a
:105c6c00080c1cf0f1fa002800f0d38155f8183c10
:105c7c005b421a0e42ea0362190201f47f010a43e5
:105c8c001b0a03f47f431343aa4a136000241471c4
:105c9c0054719471d471147254729472d4726ff0f2
:105cac007f03137354739473d47314745474947473
:105cbc00d47415ed097bfceec77b17ee903a1a0ee7
:105ccc0042ea0362190201f47f010a431b0a03f43e
:105cdc007f431343974a5361aa6c6b6ca2eb030886
:105cec001cf0b4f8944ba3fb00231b0cb8fbf3f390
:105cfc001a0e42ea0362190201f47f010a431b0add
:105d0c0003f47f4313438b4a9361aa6c6b6ca2eb35
:105d1c0003081cf09bf8884ba3fb00231b0cb8fb5f
:105d2c00f3f203fb128308ee903af8ee688a68ee01
:105d3c00888a1cf08bf8804ba3fb00231b0c07ee0e
:105d4c00903ab8ee677ac8ee877a67ee887afceefe
:105d5c00e77a17ee903a1a0e42ea0362190201f43e
:105d6c007f010a431b0a03f47f431343714ad36137
:105d7c0055f8143c1a0e42ea0362190201f47f0131
:105d8c000a431b0a03f47f4313436a4a136255f810
:105d9c00103c1a0e42ea0362190201f47f010a4315
:105dac001b0a03f47f431343624a536255f8183cb1
:105dbc001a0e42ea0362190201f47f010a431b0a1c
:105dcc0003f47f4313435b4a9362134682f82c40df
:105ddc0082f82d4082f82e4082f82f4082f8304015
:105dec0082f8314082f8324082f83340342219462e
:105dfc0035f9080c18f033f84ff04c0842462146a0
:105e0c0008a812f0f1ff424608a935f9080c18f061
:105e1c0026f835f9080c08f003fffae00221504689
:105e2c0008f008f8012386f8893008e735f9080ce2
:105e3c001af093feede00921504617f051f8e8e016
:105e4c0096f88b30012b24d036f90c0c1af030fe5e
:105e5c00002800f0de8008a936f90c0c15f0dcfbec
:105e6c00a6f1040e08ac0fccaee80f000fccaee8d8
:105e7c000f000fccaee80f0094e803008ee803008f
:105e8c000721504617f02cf836f90c0c1af0c6f80e
:105e9c00bfe00921504617f023f8bae0d6f880305d
:105eac00d3f8908036f90c0c1bf050fe049048b3dc
:105ebc0056f81c3c002b41d055f81c3c013345f8de
:105ecc001c3c2a6d01322a6545f8183cdded047a3c
:105edc00b8eee76b15ed097b37ee067b05ed097b1c
:105eec004ff03408049c332c40f21684424611497e
:105efc0035f90c0c0ff000ff343ca4b2002cf2d19d
:105f0c0000f011bc36f90c0c1af088f8002800f0df
:105f1c000a8418f08dfd064a002319f059fdb0646f
:105f2c000821504616f0dcff73e000bfec73400014
:105f3c00f04902000c004020851dd96f4feaeb039d
:105f4c0003ebc30203eb4203c3eb432303eb834397
:105f5c00d6f88020d2f88c20526814465a42bf4999
:105f6c0001f5ee614046a04718f062fdbc4a0023e3
:105f7c0019f02efd7064706656f81c3cb36536f94a
:105f8c000c0c1bf04dfe1bf013f9d6f88030d3f837
:105f9c008c3036f8322c0292020e0192c0f307427a
:105fac0000925b681c46c0f30723c2b2ab4901f5f3
:105fbc00b1614046a04773783278d6f88010d1f89a
:105fcc008c10308c0290f0780190b0780090496879
:105fdc000c46a24901f2bc514046a0476ce718f0b0
:105fec0027fd9f4a002319f0f3fc6b6ec31a55f87a
:105ffc00442c934240f29c830021504607f01aff38
:10600c0096e396f88930002b3ed00921504616f0c5
:10601c0067ff01370af1d80a0bf1d80bd83609f112
:10602c00d809904b1b68bb4240f3aa83354696f8bf
