:020000040000fa
:020000040040ba
:10000000f8ef45201de5400057284100ab31410085
:100010004f394100af44410013554100000000003a
:1000200000000000000000000000000011b84100c6
:100030008f3441000000000001754100fda841001f
:10004000e3254100e3254100e3254100e32541008c
:10005000e3254100e3254100e3254100e32541007c
:10006000e325410000000000e3254100e3254100b5
:10007000e3254100e3254100ddff4000e325410089
:10008000e3254100e3254100e3254100e32541004c
:10009000e3254100e3254100e325410051b741003c
:1000a000e3254100e3254100e3254100e32541002c
:1000b000e3254100e3254100e3254100e32541001c
:1000c000e3254100e3254100e3254100e32541000c
:1000d000e3254100e3254100e3254100ddcd41005a
:1000e000e3254100e3254100e3254100e3254100ec
:1000f000e3254100e3254100e3254100e3254100dc
:10010000e3254100e3254100e3254100e3254100cb
:10011000e325410000000000000000000000000096
:10012000e3254100e3254100e3254100e3254100ab
:10013000e3254100e3254100e3254100e32541009b
:10014000e3254100e3254100e3254100e32541008b
:10015000e3254100e3254100e3254100e32541007b
:08016000e3254100e325410005
:020000040000fa
:020000040040ba
:10016800f8b500bff8bc08bc9e467047d9c7410027
:10017800216c4100f8b500bff8bc08bc9e4670472a
:04018800fd6b4100ca
:020000040000fa
:020000040040ba
:08018c00409f0000010000008b
:020000040000fa
:020000040040ba
:04019400012070478f
:020000040000fa
:020000040040ba
:100198002de9f04f2ded068bcfb00c460591934617
:1001a8000a9311901bf0a0ff03681793184612f0ea
:1001b80063f8a38915901d0603d52369002b01f068
:1001c800518100239fed7a8b9fed7b9b0f932493a6
:1001d80023931493199312931893169303935e46db
:1001e80025abdff8dca1ddf844b0229399463378db
:1001f8003446e3b1252b02d119e0252b03d014f89e
:10020800013f002bf9d1a51b8db1239b249ac9f876
:10021800006001332a44072bc9f804502492239321
:1002280000f39d8009f10809039b2b44039323786d
:10023800002b01f0ca8000234ff0ff329846079345
:100248008df86b30671c637804922b2420250137c6
:10025800a3f120025a2a00f2e483dfe812f0a50293
:10026800e203e203ae02e203e203e2035f00e20319
:10027800e203b202bf02e2037c00cd02e203e7021e
:10028800d203d203d203d203d203d203d203d203be
:10029800d203e203e203e203e203e203e203e2033e
:1002a8004a03e2037c0392034a034a034a03e20334
:1002b800e203e203e203eb02e203e203ef02e203fa
:1002c800e203e2030003e2032703e203e2039402ea
:1002d800e203e203e203e203e203e203e203e203ee
:1002e8004a03e2037c0354024a034a034a03c30253
:1002f80054025b00e203b003e203ba0323023803ab
:100308005b00e203000376003e02e203e203b3006f
:10031800e203760048f020083b7898e758461bf03f
:10032800e3fe43681693184611f0a6ff1890584646
:100338001bf0dafe83681293189b33b1129b23b12a
:10034800129b1b78002b41f083803b787fe7079a4c
:100358000a935242079248f004083b7877e722aaaa
:100368000599584610f0f6fd80b90df194095be740
:1003780022aa0599584610f0edfd002800f0828168
:10038800099b1bb1099911980cf01cfe059bb3f948
:100398000c3013f0400f039b18bf4ff0ff3303934b
:1003a80003984fb0bdec068bbde8f08faff300802b
:1003b8000000000000000000ffffffffffffef7fcd
:1003c800dcc941000d9318f0200fb44b149340f092
:1003d800e1810a9a18f0100f134640f09d8518f035
:1003e800400f41f01d8018f4007f00f0958504331c
:1003f80014780a93002518f0010f0bd054ea05036e
:1004080008d030239df834208df86d2048f002087c
:100418008df86c3028f48061022300228df86b205f
:100428000498421c00f0908154ea050221f08008eb
:1004380040f08f81002840f00984002b40f0a2840e
:1004480011f001034eae089302d0302306f8013da7
:100458000023089a0993139310930e93049b9342d5
:10046800b8bf13469df86b20029312b1029b01336b
:10047800029318f002030b9302d0029b02330293fb
:1004880018f084030c9340f0ea82079b02995c1ae7
:10049800002c40f3e482102c2499239a804d25dd0a
:1004a80048461023c146b046059e04e0103c102c77
:1004b80000f1080017dd01321031072a2491239238
:1004c80005604360f2dd22aa31465846069310f0d3
:1004d80041fd00287ff454af103c102c2499239a36
:1004e800069b25a8e7dc4646c846814601326318c4
:1004f800072a24932392c9f80050c9f8044000f34e
:100508008f849df86b2009f1080972b1239a013292
:1005180001330df16b000121072a2493239289e806
:10052800030000f3a98309f108090b9a6ab1239a19
:10053800013202331ba80221072a2493239289e857
:10054800030000f3a58309f108090c9a802a00f03a
:10055800eb82049a0899541a002c36dd102c239a41
:1005680026dd49461025a146059c06e0a9f110099b
:10057800b9f1100f01f1080118dd01321033072a13
:1005880024932392c1f800a04d60efdd22aa2146f2
:10059800584610f0dffc00287ff4f2aea9f11009ec
:1005a800b9f1100f249b239a25a9e6dc4c4689460d
:1005b80001322344072a24932392c9f800a0c9f8da
:1005c800044000f34d8309f1080918f4807f40f0d6
:1005d8004f82239a0898c9f8006001320344072a19
:1005e8002493c9f80400239200f3248309f108092d
:1005f80018f0040f3bd0079a0299541a002c36dde4
:10060800102c239a264d1fdd1026ddf8148004e0f7
:10061800103c102c09f1080916dd01321033072aa5
:100628002493239289e86000f2dd22aa41465846c5
:1006380010f090fc00287ff4a3ae103c102c249bf3
:10064800239a0df19409e8dc01322344072a249304
:100658002392c9f80050c9f8044008dd22aa059978
:10066800584610f077fc00287ff48aae249b039a42
:10067800079902988142acbf521812180392002bb6
:100688007ff476ae00232393099b1bb10999584642
:100698000cf098fc0df194093e46a8e584934100be
:1006a800ccc9410018f0200f0d9340f0ce800a9a73
:1006b80018f0100f134640f0198418f0400f40f05e
:1006c800a28618f4007f00f01184043314780a938a
:1006d800002528f4806100239fe641468e060d938d
:1006e80000f1ea800a9acd06134600f105844c060b
:1006f80000f18f86880540f1ff83147804320025c5
:1007080001230a9289e641468c060d9300f13f8148
:10071800c80600f1f8834a0600f188868b0540f187
:10072800f2830a9890f90040e517043022462b46d8
:100738000a90002a73f10003c0f239810498421c20
:100748004ff001037ff470ae54ea050200f07f8297
:100758008846012b00f01e83022b40f0a8821498d3
:100768004eae230904f00f0143ea05732a091c461b
:100778001546435c06f8013d54ea0503f1d14eab3a
:100788009b1b089364e60d9318f0200fb54b149348
:100798003ff41fae0a9d073525f0070303f1080251
:1007a8000a92d3e9004526e69df86b30002b7ff4ca
:1007b800ccad8df86b503b7849e548f001083b78a3
:1007c80045e50a990b6807931a46002a0b4603f178
:1007d8000403fff6bcad0a933b7838e58df86b400f
:1007e8003b7834e53b78682b03bf7b7848f4007886
:1007f800013748f040082ae53b782a2b07f1010128
:1008080001f01c81a3f13002092a0f4601f24a8047
:100818000023194617f8013b01eb810102eb410166
:10082800a3f13002092af5d9049111e548f08008ae
:100838003b780ce548f008083b7808e548f01008d4
:1008480018f0200f0d933ff432af0a9d073525f0bd
:10085800070303f108020a92d3e9004539e70a9a27
:100868000d93166800248df86b40151d002e00f0be
:100878003d87049a531c00f09b862146304613f0ae
:1008880023fd0990002800f08287099b04949b1b94
:100898001a4622eae27208930a95234602920993bd
:1008a800139310930e939df86b20dee548f010012a
:1008b8008e060d937ff516af0a9d073525f00703c1
:1008c80003f10802d3e900450a920123a5e50a9835
:1008d800654b046814933022782304308df86d300a
:1008e8000d9348f002010a9000258df86c20022330
:1008f80093e50a9d0d9318f0080f05f1070500f020
:10090800ed8425f0070393ed008b03f108020a92aa
:10091800b0eec87bb4ee497bf1ee10fa40f33984af
:10092800b5eec08bf1ee10fa00f1f0869df86b2061
:100938004e4e0d9c0323002118460293331f099144
:1009480028f08008472cd8bf1e46089004911391c0
:1009580010910e9189e50a980d9301688df8d410cd
:10096800002301461a468df86b30043101230293a7
:1009780009920492139210920e920a91089335ae3e
:1009880077e548f010018c060d937ff5c1ae0a9dfe
:10099800073525f00705d5e90023002a05f10800e9
:1009a8001d4673f100030a901446bff6c7ae2d2307
:1009b80064428df86b3065eb4505012330e53b78e3
:1009c8006c2b03bf7b7848f02008013748f01008eb
:1009d8003de418f0200f40f0098518f0100f35d1cc
:1009e80018f0400f40f0788618f4007f2ed00a9a4d
:1009f800136804320a929df80c201a703e46fff7dd
:100a0800f6bba3f130020023194617f8013b01ebae
:100a1800810102eb4101a3f13002092af5d90791be
:100a280016e419460d93002b00f0cf840023012013
:100a38001a4602908df8d4108df86b300993049300
:100a4800139310930e93089035ae12e50a9a136823
:100a580004320a92039a1a603e46fff7c8bb249be9
:100a680053e500bf709341008493410064934100b3
:100a78000d9a652a40f39680b5ee408bf1ee10fa98
:100a880040f03981239ac249c9f800100132013374
:100a98000121072a24932392c9f8041000f34484ff
:100aa80009f108091c9b0f9a9342249b03db18f059
:100ab800010f3ff49dad239a15981799c9f80010b6
:100ac80001320344072ac9f804002493239200f34f
:100ad800b28409f108090f9a541e002c7ff788addb
:100ae800102c239a40f308831025059e05e009f190
:100af8000809103c102c40f3ff8201321033072afa
:100b080024932392c9f800a0c9f80450efdd22aa63
:100b18003146584610f01efa00287ff431ac249b69
:100b2800239a0df19409e4e7079a0299541a002cc4
:100b38007ff70fad102c239a26dd49461025a146d4
:100b4800059c06e0a9f11009b9f1100f01f108019f
:100b580018dd01321033072a24932392c1f800a02c
:100b68004d60efdd22aa2146584610f0f3f900281f
:100b78007ff406aca9f11009b9f1100f249b239a50
:100b880025a9e6dc4c46894601322344072a2493ea
:100b98002392c9f800a0c9f8044000f3e68209f1dd
:100ba8000809d6e40f9ac9f80060012a239a03f1cc
:100bb800010302f101024ff0010124932392c9f8c5
:100bc800041040f3a582072a00f3b58209f1080949
:100bd80015981799c9f8001001320344072a24937d
:100be8002392c9f8040000f3b38209f10809b5eead
:100bf800408bf1ee10fa0f9900f021810139013292
:100c080001360b44072ac9f8006023922493c9f8d7
:100c1800041000f3468109f108091998c9f804007d
:100c2800013203441ea9072a24932392c9f800100d
:100c38007ff7dcac22aa0599584610f08bf90028fa
:100c48007ff49eab249b0df19409d1e44146012b1e
:100c580000f03581022b27d18846002400257ee547
:100c680022aa0599584610f075f900287ff488ab38
:100c7800249b0df19409a8e422aa0599584610f07e
:100c880069f900287ff47cab249b0df194094ce4ae
:100c980022aa0599584610f05df900287ff470ab38
:100ca800249b0df1940950e48846002400254ea9a0
:100cb80000e03146e20842ea4572e80804f007031a
:100cc80005461446303354ea050201f8013c01f1a7
:100cd800ff36eed118f0010f3ff451ad302b3ff441
:100ce8004ead3023023906f8013c4eab5b1a08932f
:100cf8000e46fff7adbb1c99002940f32f830e9acf
:100d08000f998a42a8bf0a46002a14460ddd239a85
:100d1800c9f8006001322344072a2493c9f8044023
:100d2800239200f3cc8409f108090e9a002ca8bf7d
:100d3800121b002a144640f30081102c239a40f31a
:100d4800d88249461025a146059c06e00831a9f13c
:100d58001009b9f1100f40f3ca8201321033072a83
:100d680024932392c1f800a04d60efdd22aa21460a
:100d7800584610f0eff800287ff402ab249b239a22
:100d880025a9e4e7049b08934eaefff761bb00bfbb
:100d9800a0934100002d08bf0a2cc0f08f8008f4f2
:100da800806300220297cdf81890cdf820b04eae9f
:100db800c346ddf84890174698460ae000232046c7
:100dc80029460a2219f0c6fd04460d4654ea0503d1
:100dd8007ed00a2200232046294619f0bbfd303276
:100de80006f8012c0137013eb8f1000fe6d099f85a
:100df80000309f42e2d1ff2fe0d0002d08bf0a2c1f
:100e0800dcd3189b1699f61a30461a4616f0a6fb3c
:100e180099f80170002fd1d009f101090027cde719
:100e280022aa0599584610f095f800287ff4a8aa38
:100e38009df86b20249b0df19409fff766bb4c1eaf
:100e4800002c7ff7eaae102c20dd1025059e04e06b
:100e5800103c102c09f1080918dd01321033072a5b
:100e680024932392c9f800a0c9f80450f0dd22aaff
:100e78003146584610f06ef800287ff481aa103cdd
:100e8800102c249b239a0df19409e6dc01322344ab
:100e9800072a24932392c9f800a0c9f804407ff7d1
:100ea800baae22aa0599584610f054f800287ff4e3
:100eb80067aa249b239a0df19409aee641464eaeeb
:100ec80030340123884606f8014d0893fff7c0ba6d
:100ed8004eab9b1bcdf84890d8460f97ddf820b055
:100ee800ddf81890029f0893fff7b2ba1c68043324
:100ef8000a930025fff7edbb04321c680a92012310
:100f08000025fff78aba0a9a146813460433e517ce
:100f18000a9322462b460ce41c6804330a930025e6
:100f2800fff769ba22aa0599584610f013f8002865
:100f38007ff426aa249b0df194090e9a18f4806f69
:100f48003244154600f083800f9908961846109b86
:100f5800cdf82c8071180491069749461646ddf89d
:100f68006090ddf84c80059d002b5fd0b8f1000f34
:100f780000f0088108f1ff38239b169a0a600133b4
:100f88004844072b2490c1f80490239300f3c880a9
:100f98000831129a049c1378a41b9c42a8bf1c46d3
:100fa800002c0bdd239b0e6001332044072b24907b
:100fb8004c60239300f3ab8113780831002cacbf4d
:100fc8001c1b1c46002c2ddd102c239a1ddd102720
:100fd80004e0103c102c01f1080116dd013210303c
:100fe800072a24902392c1f800a04f60f1dd22aabd
:100ff800294658460ff0aeff00287ff4c1a9103cdf
:10100800102c2498239a25a9e8dc01322044072ac9
:1010180024902392c1f800a04c6000f39181129ba8
:101028001b7808311e44109b002b9fd1b8f1000f8c
:10103800a0d134460f9a089e069fddf82c80b2187e
:1010480094428946214628bf114603460d461c9afc
:101058000f998a4280f201822399159c1798c9f842
:1010680000000131234407292493c9f8044023913f
:1010780000f38d8209f108090f997418641b8a1a04
:101088009442a8bf1446002c0ddd2399c9f80050de
:101098000131234407292493c9f80440239100f31c
:1010a800bc8309f10809002cacbf141b1446002ca2
:1010b8007ff79eaa102c239a1edd1025059e04e0ba
:1010c80009f10809103c102c16dd01321033072aeb
:1010d80024932392c9f800a0c9f80450f0dd22aa8d
:1010e800314658460ff036ff00287ff449a9249b63
:1010f800239a0df19409e5e701322344072a249342
:101108002392c9f800a0c9f804407ff76faa91e5b7
:1011180018f0010f7ff457ad072a7ff77cadc0e6c2
:1011280022aa294658460ff015ff00287ff428a95f
:10113800249825a92de722aa059958460ff00afff9
:1011480000287ff41da9249b239a0df194093fe5fb
:1011580022aa059958460ff0fdfe00287ff410a931
:10116800249b239a0df1940941e522aa0599584632
:101178000ff0f0fe00287ff403a9249b0df19409d9
:10118800fff7e7b9129b013b1293109b013b1093a9
:10119800f2e6b4ee488bf1ee10fa80f1e3830d9b92
:1011a800612b00f0b882412b00f07881049b013359
:1011b8000d9b23f0200500f09d83472d04d1049b4f
:1011c800002b08bf0123049318ee903a48f480726c
:1011d800002b02924ff00003c0f2b882b0ee48ab89
:1011e800069309930d9b662b00f0ef82462b00f0c7
:1011f800d883b0ee4a0b452d0abf049b049c5c1ca7
:1012080020aa1dab0192009322461cab022158462e
:1012180004f036f90d9b672b064640f0958318f0cd
:10122800010f40f04383209bc6469b1bddf80880d6
:101238000f93472d00f0cf810d9b462b00f0b38212
:10124800652b40f312840d9b662b00f0ac821c9b2f
:101258000e930f9b0e9a19469142134600f3608233
:101268001ef0010f00f06383159a134408931ef4cf
:10127800806f00f010830e9b002b40f30c836723d4
:101288000d9312980e9a0023139310930378ff2b53
:101298000ed09a420cdd4178d21a002900f08481e0
:1012a800109b013310930b46ff2b00f10100f0d186
:1012b8000e92109b139a089912901344189a02fbe5
:1012c8000313089323eae3730293069b002b40f071
:1012d8007b8104939df86b20fff7c7b825f00705bd
:1012e80005f1080395ed008b0a93fff711bb4c46f7
:1012f800894601322344072a24932392c9f800a07f
:10130800c9f804403ff70eae09f1080915e622aa0c
:10131800294658460ff01efe00287ff431a8129b7c
:1013280024981b7825a949e622aa059958460ff062
:1013380011fe00287ff424a80df19409fff7b2bb31
:1013480022aa294658460ff005fe00287ff418a85f
:10135800129b24981b7825a91e4464e6239ac24848
:10136800c9f80000013201330120072a249323928f
:10137800c9f8040000f3858009f1080929b90f9a12
:101388001ab918f0010f3ff433a9239a159c17983e
:10139800c9f8000001322344072a2493c9f80440fd
:1013a800239200f36a8209f108090029c0f24482f5
:1013b8000f98c9f8006001320344072a2493239246
:1013c800c9f804007ff712a934e4249b002b3ef4eb
:1013d800ddaf059c119822aa21460ff0bbfd00281d
:1013e8003ef4d4afb4f90c30fef7d3bf0a9a039990
:1013f8001368cd170846043229460a92c3e900014a
:101408003e46fef7f4be043314880a930025fff71e
:1014180060b914880432002501230a92fef7fdbf43
:10142800043314880a930025fef7e5bf0a98b0f93b
:101438000040fff779b922aa059958460ff08afdae
:1014480000287ef49daf249b0df19409fff743bb60
:1014580048f480683b78fef7fabe18f0010f3ff4b5
:101468000baef9e54021119806f084ff059a10604b
:101478001061002800f0f182059a40235361fef7bd
:10148800a0be22aa059958460ff064fd00287ef4f4
:1014980077af1c99249b0df194096fe730238df8e1
:1014a8006c3058238df86d30049b632b48f0020490
:1014b80000f340820023099335ae18ee903a002bd2
:1014c8000d9b48f481720292a04623f02005c0f2d9
:1014d8003e81b0ee48ab002306930d9b612b00f0d4
:1014e800ec81412b7ff47eaeb0ee4a0b1ca814f0c1
:1014f80003fcb4ee007b20ee070bb5ee400bf1eedb
:1015080010fa01d101231c93584c049bb3ee005be5
:10151800013b314605e0b5ee400bf1ee10fa14d070
:10152800114620ee050bfdeec06b0a4616ee900a3a
:10153800b3f1ff3f205c02f8010bb8eee67b1846da
:1015480030ee470b03f1ff33e5d1b6ee007bb4ee86
:10155800c70bf1ee10fa00f3ff80b4ee470bf1ee83
:1015680010fa04d116ee903adb0700f1f580002856
:1015780007db1418302301f8013fa142fbd10130e9
:101588000244931bc6460f93ddf8088051e622aa51
:10159800059958460ff0defc00287ef4f1ae1c9a3f
:1015a800249b0df1940967e51399013113916ee6b7
:1015b8003046049410f060fe20eae07208900a9524
:1015c80002922346fff76bb92d2200238df86b207a
:1015d8000493fef74bbf1c9b0e93da1c03db049aa3
:1015e80093427ff736ae0d9b023b0d9323f0200507
:1015f8000e9b412d03f1ff331c9300f059819df898
:1016080034200021002bb8bf0e9b8df87820babf7c
:10161800c3f101032d222b22092b8df8792040f3e9
:101628005d810df187042046114d00e0104685fbd1
:101638000312d917c1eba20101eb8102a3eb42020d
:101648003032092900f8012c0b4600f1ff32eddc9d
:1016580030330238dbb2844202f8013c40f2fa81ae
:101668000df17a00114607e0a09341007093410004
:101678006766666611f8013b00f8013b8c42f9d1b8
:101688000134a21a0df17a031a441eabd31a0f9a29
:101698001993012a1344089340f3ad81089b159ac6
:1016a800134408930023139310930e93089b2ef46e
:1016b800806e23eae3734ef48078029305e622aa4b
:1016c800059958460ff046fc00287ef459ae249b35
:1016d8000df19409fff729bb0a9a136804320a929c
:1016e800bdf80c201a803e46fef781bd049b139678
:1016f800062b28bf06233246049610960e960996a6
:1017080002930a950893ae4efef7afbe2d228df8d0
:101718006b20fff70db930238df86c307823c1e6c4
:101728000f9b159a134408930e9b002b40f34e8190
:1017380067230d931ef4806f7ff4a3ad089b23ea03
:10174800e3730293002313931093bee509932d23ab
:101758000693b1ee48abc0e6209112f8010ce37b8a
:10176800834240f0508113464ff0300e03f801eced
:10177800209b591e209113f8011c8142f6d039296b
:1017880016bf0131a17ac9b203f8011cf9e6049b1e
:101798000293089304900a95139010900e909df868
:1017a8006b20fef762be1c9b0e93002b049b40f33c
:1017b8002d81002b40f0ec801ef0010f40f0e880f6
:1017c8000e9b089366230d93b4e7049cb0ee4a0b76
:1017d80020aa1dab0192009303211cab2246584658
:1017e80003f04efe064601193378302b00f0f980dd
:1017f8001c9c2144b5ee40abf1ee10fa0bd0209bb7
:1018080099427ff611ad30205a1c20921870209b07
:101818009942f9d808e50b4606e522aa05995846e3
:101828000ff098fb00287ef4abad1c9a0f99249b0f
:101838008a1a0df1940936e44c4210315dda10250c
:1018480004e009f10809103c102c56dd0132103370
:10185800072a24932392c9f800a0c9f80450f0dda0
:1018680022aa059958460ff075fb00287ef488ad2a
:10187800249b239a0df19409e5e722aa0599584675
:101888000ff068fb00287ef47bad1c99249b239afb
:101898000df1940989e5089b23eae3730293672312
:1018a8000d934fe700220492fef7d2bc3119a1e74d
:1018b8000d9a0f32d2b20121a4e6b0ee4a0b1ca851
:1018c80014f01afab4ee007b20ee070bb5ee400bcd
:1018d800f1ee10fa00f0af803a4c16e6002940f01d
:1018e8008f8030228df87a200df17b02303313700f
:1018f8000132cae60623049366e401322344072a28
:10190800c9f800a0c9f804402493239209f10809f2
:101918007ff74ead22aa059958460ff01bfb002809
:101928007ef42ead249b239a0df1940940e50e9b7d
:1019380008939ce4591c584606f01cfd06460028ee
:1019480000f096800990b8e50d9b472baed118f0b2
:10195800010f3ff468ac0d9b462b06eb04013ff4e6
:1019680043af47e7184e0d9c9df86b20002319469e
:1019780003200993331f0491029028f08008472c14
:10198800d8bf1e46139110910e910890fef76dbdb9
:10199800159a0e9b1344049a1a44662308920d93d1
:1019a800c8e6049cb0ee4a0b20aa1dab0192009336
:1019b80022461cab0321584603f062fd0646cae7df
:1019c80098934100849341006c934100089ac3f1b5
:1019d80001031a4422eae2730293672308920d93e3
:1019e800b0e6b5ee40abf1ee10fa3ff401afc4f14a
:1019f80001041c94fde61ef0010f3ff453ae4de6c2
:101a08000df17a0272e701461346b8e613b91ef0e3
:101a1800010f0ad0159b049a01331a4422eae27393
:101a28000293662308920d938ce601230293089390
:101a380066230d9386e601231c934de70a987b786d
:101a4800026842eae2720492024604320f460a929f
:101a5800fef7fdbb0df17a0217e6119a0c2313600d
:101a68004ff0ff330393fef79bbc1c9b0e93bfe51f
:101a7800059ab2f90c3043f040039381fef789bc14
:020000040000fa
:020000040040ba
:101a880055736167653a206d6163696e666f200df5
:101a98000a00000045783a206d6163696e666f2020
:101aa8000d0a0000496e746572666163653a202507
:101ab8007320447269766572205374617469737413
:101ac8006963730d0a0000000d0a20526563656999
:101ad800766520537461746973746963730d0a00c1
:101ae80009206e52784f6b5061636b6574733a20ae
:101af80025640d0a09206e527850656e6442756639
:101b0800666572733a2025640d0a09206e5278536f
:101b180063686564427566666572733a2025640d6c
:101b28000a00000009206e52784572726f72506187
:101b3800636b6574733a2025640d0a09206e527828
:101b4800467261676d656e744572726f72733a2082
:101b580025640d0a09206e5278427566664e6f74c8
:101b6800417661696c61626c653a2025640d0a00f2
:101b78000d0a205472616e736d6974205374617418
:101b88006973746963730d0a0000000009206e54bc
:101b9800784f6b5061636b6574733a2025640d0a46
:101ba80009206e547850656e644275666665727376
:101bb8003a2025640d0a09206e54784572726f72b6
:101bc8005061636b6574733a2025640d0a09206eb1
:101bd8005478517565756546756c6c3a2025640da9
:101be8000a0d0a00096e6f7420737570706f727435
:101bf80065640d0a00000000496e746572666163d1
:101c0800653a2025732048617264776172652052b5
:101c180065676973746572205374617475730d0a0e
:101c280000000000092025733a20307825780d0a35
:101c380000000000656e61626c656400656e61623b
:101c48006c65000064697361626c65640000000083
:101c580064697361626c650055736167653a202534
:101c680073203c696e746572666163653e203c6fe3
:101c78006e2f6f66663e200d0a00000045783a20f8
:101c88002573205049433332494e54206f6e200d3e
:101c98000a000000556e6b6e6f776e20696e746572
:101ca80072666163650d0a006f6e00006f666600fc
:101cb800556e6b6e6f776e206f7074696f6e0d0a5c
:101cc8000000000025732025730d0a004661696c29
:101cd800656420746f2025732025730d0a000000a9
:101ce800556e6b6e6f776e207365727669636520cb
:101cf80025730d0a000000006e6f6e65000000007d
:101d0800682f400001000000a02b400002000000e6
:101d1800b01c400003000000b41c40000300000099
:101d28006c2f40000400000055736167653a206419
:101d38006e7363203c64656c2f696e666f2f6f6edf
:101d48002f6f66662f6c6f6f6b75703e200d0a00e3
:101d580055736167653a202573203c6f6e2f6f6657
:101d6800663e203c696e746572666163653e203c20
:101d78007374726963742f707265663e2f3c636c6e
:101d88006561723e200d0a0045783a202573206f60
:101d98006e20657468300d0a000000007374726963
:101da800637400007072656600000000636c656112
:101db8007200000055736167653a20646e73632092
:101dc8006c6f6f6b7570203c747970653e203c6851
:101dd8006f73744e616d653e200d0a0048656c7026
:101de8003a203c686f73744e616d653e2855524cbd
:101df80029202d206c6f6f6b20757020666f722004
:101e0800686f73746e616d650d0a000048656c70cb
:101e18003a203c747970653e203a2061206f722028
:101e28004120666f7220495076342061646472657f
:101e38007373206c6f6f6b75700d0a0048656c705a
:101e48003a203c747970653e203a206161616120d6
:101e58006f72204141414120666f722049507636a9
:101e68002061646472657373206c6f6f6b75700d9d
:101e78000a00000048656c703a203c747970653e31
:101e8800203a20616e7920666f7220626f74682034
:101e98004950763420616e6420495076362061645a
:101ea8006472657373206c6f6f6b75700d0a000038
:101eb800646e7363206c6f6f6b75703a20636f6d1f
:101ec8006d616e6420696e2070726f6772657373de
:101ed8002e205265747279206c617465722e0d0a19
:101ee8000000000041000000610000004141414144
:101ef800000000006161616100000000414e59006e
:101f0800616e7900646e7363206c6f6f6b75703ae5
:101f1800205b25735d204c6f6f6b75702054797052
:101f280065206e6f7420737570706f727465642e9f
:101f38000d0a0000646e7363206c6f6f6b75703ae6
:101f480020486f7374206e616d6520746f6f206c0c
:101f58006f6e672e2052657472792e0d0a0000008c
:101f6800646e7363206c6f6f6b75703a2072657363
:101f78006f6c76696e6720686f73743a20257320da
:101f8800666f7220747970653a2573200d0a000017
:101f980055736167653a20646e73632064656c20cd
:101fa8003c686f73744e616d653e7c616c6c200d8e
:101fb8000a00000048656c703a203c686f73744ee4
:101fc800616d653e2855524c29202d2052656d6f54
:101fd80076652074686520656e747279206966205c
:101fe800657869737473200d0a00000048656c7089
:101ff8003a20616c6c202d2052656d6f76652061ea
:102008006c6c20746865207265736f6c76656420eb
:10201800656e747279200d0a00000000616c6c0016
:102028005b25735d206e6f742070617274206f661b
:102038002074686520444e532043616368652065b9
:102048006e747279200d0a00496e636f6d706c654d
:10205800746520636f6d6d616e64200d0a00000069
:1020680055736167653a20646e736320696e666fa5
:10207800200d0a0048656c703a20646973706c61c1
:10208800792074686520444e532063616368652035
:10209800656e7472792064657461696c73200d0ac9
:1020a80000000000444e5320436c69656e7420693b
:1020b8007320646f776e210d0a000000444e532090
:1020c800436c69656e74204946202d2053747269eb
:1020d80063743a2025732c205072656665727265a8
:1020e800643a2025730d0a00444e5320436c6965f9
:1020f8006e74202d2074696d653a2025642c20703b
:10210800656e64696e673a2025642c206375727267
:10211800656e743a2025642c20746f74616c3a20c3
:1021280025640d0a00000000486f73746e616d65c8
:10213800203d202573200d0a54696d656f75742044
:102148003d202564200d0a0049507634203d257332
:102158000d0a000049507636203d2025730d0a00ef
:102168002d2d2d2d2d2d2d2d2d2d2d2d2d2d2d2d97
:102178002d2d2d2d2d2d2d2d2d2d2d2d2d2d2d2d87
:102188002d2d2d2d2d2d2d2d2d2d2d2d2d2d2d2d77
:102198002d2d2d2d0d0a00004e6f20444e53204347
:1021a8006c69656e7420436163686520656e74723e
:1021b800696573200d0a0000496e76616c696420b8
:1021c800496e70757420436f6d6d616e64203a5b63
:1021d800202573205d200d0a000000006172703a0e
:1021e800206164647265737320616c7265616479df
:1021f800207175657565640d0a0000006172703a9a
:102208002061646472657373206e65776c792071e0
:1022180075657565640d0a006172703a207175659f
:1022280075652066756c6c2f6572726f720d0a0089
:1022380055736167653a20617270203c696e7465f8
:1022480072666163653e203c722f712f642f6c3e6d
:10225800203c6970416464723e200d0a0000000051
:1022680045783a20617270205049433332494e54c0
:102278002072203139322e3136382e312e31303518
:10228800200d0a006c0000006172703a202564205d
:10229800736c6f747320696e207468652063616362
:1022a80068650d0a000000006172703a2049507696
:1022b8003420616464726573733a202573000000ea
:1022c8002c204d414320416464726573733a202584
:1022d800730000002c20636f6d706c6574650d0ac7
:1022e800000000002c207065726d616e656e740dc3
:1022f8000a0000006172703a204950763420616407
:1023080064726573733a2025732c20717565756541
:10231800640d0a00496e76616c6964204950206139
:1023280064647265737320737472696e67200d0a32
:1023380000000000720000006172703a207265733c
:102348006f6c766564202d20495076342061646472
:10235800726573733a2025732c204d4143204164e4
:1023680064726573733a2025730d0a0071000000ca
:102378006172703a204950763420616464726573e2
:10238800733a2025732c204d4143204164647265c3
:1023980073733a2025730d0a000000006172703ac9
:1023a800206e6f207375636820656e7472790d0aec
:1023b80000000000640000006172703a2072656dd0
:1023c8006f7665642025730d0a0000006172703a0b
:1023d80020556e6b6e6f776e206f7074696f6e0d1f
:1023e8000a00000055736167653a2064686370737a
:1023f800696e666f203c696e746572666163653ede
:10240800200d0a0045783a206468637073696e6627
:102418006f205049433332494e54200d0a000000c2
:10242800556e6b6e6f776e20696e74657266616348
:102438006520737065636966696564200d0a00002c
:102448004d414320416464726573730909495041e1
:10245800646472657373090952656d61696e696eaa
:10246800674c6561736554696d65200d0a0000004d
:10247800200a0d204e6f206d6f726520656e747294
:10248800792070726573656e74200d0a0000000073
:102498002573000009257320000000000925642029
:1024a800536563730d0a0000696e7465726e616c22
:1024b80000000000706f6f6c0000000065787465a4
:1024c800726e616c00000000756e6b6e6f776e0047
:1024d80055736167653a2068656170696e666f203b
:1024e800312f322f33200d0a0000000045783a20a2
:1024f80068656170696e666f20310d0a0000000022
:102508004e6f206865617020696e666f2065786916
:1025180073747320666f7220747970653a2025731e
:10252800210d0a004865617020747970653a20258c
:10253800732e20496e697469616c206372656174d9
:10254800656420686561702073697a653a2025643e
:102558002042797465730d0a00000000416c6c6fad
:102568006361626c6520626c6f636b206865617083
:102578002073697a653a2025642042797465730d61
:102588000a000000416c6c20617661696c61626cc4
:102598006520686561702073697a653a2025642032
:1025a80042797465732c206869676820776174655f
:1025b800726d61726b3a2025640d0a004c61737468
:1025c8002068656170206572726f723a20307825d4
:1025d800780d0a004e6f20547261636520696e663b
:1025e8006f206578697374732e0d0a0053746163e4
:1025f8006b207570206661696c65640d0a000000c7
:10260800537461636b2075702073756363656564cb
:1026180065640d0a0000000055736167653a207310
:102628007461636b203c75702f646f776e3e203c3d
:1026380070726573657276653e0d0a0045783a20ba
:10264800737461636b20646f776e20707265736555
:102658007276650d0a00000075700000537461639e
:102668006b20616c7265616479207570210d0a00b8
:102678005475726e20537461636b20646f776e209b
:10268800616e64207468656e207570210d0a000003
:1026980052657374617274696e672074686520731b
:1026a8007461636b207769746820256420696e748f
:1026b8006572666163652873290d0a00646f776e19
:1026c80000000000537461636b20646f776e3a20da
:1026d80063616e6e6f742067657420612073746126
:1026e800636b2068616e646c650d0a0053746163e6
:1026f8006b20646f776e20737563636565646564ca
:102708000d0a000055736167653a206966203c69c7
:102718006e746572666163653e203c646f776e2fe8
:1027280075703e200d0a000045783a2069662050f1
:1027380049433332494e5420646f776e200d0a00a6
:102748005468697320696e74657266616365206197
:102758006c72656164792075700d0a00546869733c
:1027680020696e7465726661636520616c7265616b
:10277800647920646f776e0d0a00000057726f6edf
:102788006720706172616d6574657220737065632e
:102798006966696564200d0a000000004f70657263
:1027a8006174696f6e207375636365737366756ca6
:1027b800210d0a004f7065726174696f6e20666141
:1027c800696c6564210d0a0055736167653a207369
:1027d80065746d6163203c696e74657266616365da
:1027e8003e203c783a783a783a783a783a783e20f7
:1027f8000d0a000045783a207365746d61632050b6
:1028080049433332494e542061613a62623a636304
:102818003a64643a65653a6666200d0a000000006d
:10282800617267765b325d3a2025730d0a000000fd
:10283800496e76616c6964204d414320616464721d
:1028480065737320737472696e67200d0a00000047
:10285800536574204d41432061646472657373202d
:102868006661696c65640d0a000000005365742098
:1028780042494f53204e616d65204f4b0d0a0000b1
:102888005365742042494f53204e616d652066613f
:10289800696c65640d0a000055736167653a2073b9
:1028a800657462696f73203c696e746572666163f2
:1028b800653e203c782e782e782e783e200d0a0032
:1028c80045783a2073657462696f732050494333c1
:1028d80032494e54204d434850424f4152445f3292
:1028e80039200d0a00000000536574206761746583
:1028f8007761792061646472657373204f4b0d0aa8
:102908000000000053657420676174657761792061
:1029180061646472657373206661696c65640d0a2d
:102928000000000055736167653a20736574677726
:10293800203c696e746572666163653e203c69700f
:1029480076342f3620616464726573733e203c765a
:10295800616c696454696d653e200d0a00000000d1
:1029680045783a2073657467772050494333324974
:102978004e54203139322e3136382e302e31200d3a
:102988000a000000536574206970206164647265f0
:102998007373204f4b0d0a005365742069702061d2
:1029a800646472657373206661696c65640d0a00fe
:1029b80055736167653a207365746970203c696e68
:1029c800746572666163653e203c697076342f36a3
:1029d80020616464726573733e203c697076346d5f
:1029e80061736b2f6970763620707265666978201e
:1029f8006c656e3e0d0a000045783a20736574696f
:102a080070205049433332494e54203139322e31e7
:102a180036382e302e38203235352e3235352e3296
:102a280035352e30200d0a00416e206164647265d0
:102a38007373207365727669636520697320616cae
:102a480072656164792072756e6e696e672e2053a7
:102a5800746f7020444843502c205a434c4c2c200f
:102a68006574632e2066697273740d0a0000000095
:102a7800496e76616c6964204950206d61736b20e2
:102a8800737472696e67200d0a0000004e6f207320
:102a980075636820696e7465726661636520697321
:102aa8002075700d0a00000055736167653a207340
:102ab8006574646e73203c696e74657266616365e3
:102ac8003e203c782e782e782e783e200d0a000085
:102ad80045783a20736574646e73205049433332e5
:102ae800494e54203235352e3235352e3235352e75
:102af80030200d0a0000000053657420444e532016
:102b080061646472657373206661696c65640d0a3b
:102b1800000000006e6f7420676976656e00000023
:102b280073756363657373006661696c0000000008
:102b380055736167653a202573203c696e74657228
:102b4800666163653e203c6f6e2f6f66662f726507
:102b58006e65772f726571756573742f696e666f10
:102b68003e200d0a0000000072656e6577000000c7
:102b7800726571756573740052657175657374203b
:102b88006e6565647320616e2049502061646472cb
:102b98006573730d0a000000696e666f000000001f
:102ba80044484350207374617475733a2025642037
:102bb80028202564203d3d20426f756e64292c2015
:102bc80074696d653a2025640d0a00004448435035
:102bd800206c656173652073746172743a20256492
:102be8002c206475726174696f6e3a202564730dc8
:102bf8000a000000444843502072656e65772074cf
:102c0800696d653a2025642c20726562696e6420be
:102c180074696d653a2025640d0a000044484350e4
:102c280020616464726573733a2025730d0a00008d
:102c380044484350207365727665723a2025730db7
:102c48000a0000004448435020626f6f74206e6190
:102c58006d653a2025730d0a000000004448435072
:102c68003a206661696c656420746f20676574201a
:102c7800696e666f0d0a0000257320257320257381
:102c88000d0a00007375636365737366756c0000e5
:102c98006661696c656421004e6f6e650000000016
:102ca800736574006765740044656661756c7420ab
:102cb800696e746572666163652073657420257337
:102cc8000d0a000044656661756c7420696e746550
:102cd80072666163652069733a2025730d0a0000e6
:102ce80055736167653a206465666e65742073651f
:102cf800742f676574203c696e74657266616365dc
:102d08003e0d0a0045783a206465666e6574207346
:102d1800657420657468300d0a0000005550000085
:102d2800444f574e0000000052656164790000006e
:102d38004e6f7420526561647900000064656661b5
:102d4800756c742049502061646472657373000067
:102d5800646863707300000055736167653a206e9c
:102d68006574696e666f0d0a0000000045783a20a8
:102d78006e6574696e666f0d0a0000002d2d2d2d8d
:102d88002d2d2d2d2d2d20496e746572666163657c
:102d9800203c25732f25733e202d2d2d2d2d2d2dd7
:102da8002d2d2d200d0a0000496e74657266616331
:102db8006520697320646f776e0d0a00486f73741d
:102dc800204e616d653a202573202d204e424e53ca
:102dd8002064697361626c6564200d0a000000005c
:102de8004950763420416464726573733a202573c0
:102df8000d0a00004d61736b3a2025730d0a00001f
:102e0800476174657761793a2025730d0a000000df
:102e1800444e533a2025730d0a0000004d414320cb
:102e2800416464726573733a2025730d0a000000cb
:102e3800646863702069732025730d0a0000000020
:102e48004c696e6b2069732025730d0a0000000021
:102e58005374617475733a2025730d0a00000000dd
:102e680064686370000000002573206973204f4e6a
:102e78000d0a0000444e53204c6f6f6b75703a205a
:102e8800444e53206661696c75726520666f7220c6
:102e980025730d0a00000000444e53204c6f6f6be1
:102ea80075703a20726571756573742074696d6503
:102eb8006f75742e0d0a00004c6f6f6b7570204192
:102ec8006e737765723a0d0a2d2d2d2d2d2d2d2d12
:102ed8002d2d2d2d2d2d2d2d2d2d2d2d2d2d0d0a5d
:102ee800000000004e6f204c6f6f6b757020656e90
:102ef80074727920666f72205b25735d0d0a00007d
:102f08005b25735d2041204950763420416464720a
:102f1800657373203a2025642e25642e25642e259a
:102f2800640d0a005b25735d2041414141204950f1
:102f380076362041646472657373203a25730d0aee
:102f4800000000003a20737461636b20636f6d6d3d
:102f5800616e6473000000007463706970000000a3
:102f680064656c006c6f6f6b757000006e657469da
:102f78006e666f003a20476574206e6574776f72cd
:102f88006b20696e666f726d6174696f6e00000008
:102f98006465666e657400003a205365742f476552
:102fa800742064656661756c7420696e74657266f8
:102fb800616365003a204448435020636c69656e3c
:102fc8007420636f6d6d616e647300003a205475f0
:102fd800726e204448435020736572766572206f84
:102fe8006e2f6f66660000007a636c6c000000004c
:102ff8003a205475726e205a434c4c206f6e2f6fd6
:1030080066660000736574646e7300003a20536549
:103018007420444e53206164647265737300000029
:1030280073657469700000003a2053657420495034
:10303800206164647265737320616e64206d6173ce
:103048006b00000073657467770000003a205365d1
:10305800742047617465776179206164647265736f
:103068007300000073657462696f73003a205365da
:103078007420686f73742773204e657442494f53e8
:10308800206e616d650000007365746d61630000fa
:103098003a20536574204d4143206164647265731e
:1030a80073000000696600003a204272696e67206a
:1030b800616e20696e746572666163652075702f34
:1030c800646f776e00000000737461636b0000002a
:1030d8003a20537461636b207475726e206f6e2f83
:1030e8006f66660068656170696e666f0000000053
:1030f8003a20436865636b2068656170207374616a
:10310800747573006468637073696e666f0000009d
:103118003a20446973706c617920444843502053c5
:103128006572766572204c656173652044657461cb
:10313800696c7300617270003a2041525020636fcd
:103148006d6d616e64730000646e7363000000004f
:103158003a20444e5320636c69656e7420636f6d2a
:103168006d616e64730000006d6163696e666f0067
:103178003a20436865636b204d4143207374617442
:083188006973746963730000b0
:020000040000fa
:020000040040ba
:10319000241240201c00000000000000d80f402036
:1031a0006400000000000000a8134020040000009c
:1031b0000000000023124020010000000000000079
:1031c000680440200403000001000000607c41000e
:1031d00000000000000000000000000000000000ef
:1031e00000000000000000000000000000000000df
:1031f00000000000000000000000000000000000cf
:1032000000000000000000000000000000000000be
:1034d00000f04520f000000000000000ac13402088
:1034e0000400000000000000300d402094000000a7
:1034f00000000000b01340200400000000000000a5
:10350000b41340200400000000000000b813402065
:10351000040000000000000094114020280000007a
:1035200000000000bc134020040000000000000068
:10353000c01340200400000000000000c41340201d
:103540000400000000000000c81340200400000038
:1035500000000000cc134020040000000000000028
:10356000a61340200200000000000000d60e4020fc
:103570000200000000000000d01340200400000002
:1035800000000000d41340200400000000000000f0
:10359000d81340200400000000000000dc1340208d
:1035a0000400000000000000e013402004000000c0
:1035b00000000000e41340200400000000000000b0
:1035c000e01440200200000000000000e21440204f
:1035d0000200000000000000e8134020040000008a
:1035e00000000000ec134020040000000000000078
:1035f000f01340200400000000000000f4134020fd
:1036000004000000000000007412402014000000bc
:1036100000000000f813402004000000000000003b
:10362000e41440200200000000000000fc134020d1
:103630000400000000000000b8ff45204800000022
:1036400000000000a0134020060000000100000060
:10365000ffffffffffff0000881240201400000062
:1036600000000000001440200400000000000000e2
:103670000414402004000000000000000412402058
:103680001f0000000000000008144020040000009b
:10369000000000000c1440200400000000000000a6
:1036a000101440200400000000000000141440200a
:1036b0000400000000000000d50e402001000000c2
:1036c00000000000ee144020010000000100000096
:1036d0000100000018144020040000000000000059
:1036e0001c14402004000000000000009c12402038
:1036f0001400000000000000ef1440200100000052
:1037000000000000e614402002000000000000005d
:10371000e8144020020000000000000020144020b7
:103720000400000000000000b0124020140000005f
:1037300000000000241440200400000000000000ed
:103740002814402004000000000000002c14402039
:103750000400000000000000501340201000000092
:1037600000000000301440200400000000000000b1
:10377000881340200800000000000000c40d402015
:1037800090000000000000006c0740205002000084
:10379000000000003414402004000000000000007d
:1037a0003814402004000000000000003c144020b9
:1037b000040000000000000040144020040000004d
:1037c000000000004414402004000000000000003d
:1037d0004814402004000000000000004c14402069
:1037e00004000000000000006013402010000000f2
:1037f00000000000c412402014000000000000007f
:10380000e41140202000000000000000f0144020df
:1038100001000000000000005014402004000000df
:1038200000000000541440200400000001000000cb
:10383000ffffffff581440200400000000000000bc
:103840005c144020040000000000000060144020d0
:103850000400000000000000641440200400000088
:1038600000000000ea1440200200000000000000f8
:103870006814402004000000000000006c14402088
:10388000040000000000000070144020040000004c
:1038900000000000000040200800000000000000c0
:1038a000080040203000000000000000701340209d
:1038b0000c000000000000003c10402064000000ec
:1038c000000000005c124020180000000000000012
:1038d00090134020080000000000000074144020f5
:1038e0000400000000000000d80e4020800000000e
:1038f000000000007c1340200c00000000000000cd
:10390000f0f04520000a000000000000781440207c
:103910000400000000000000580f4020800000005c
:1039200000000000540e4020810000000000000054
:103930005c114020380000000000000018ff452006
:10394000a000000000000000ec1440200200000075
:1039500001000000010000007c1440200400000071
:1039600000000000380040200400000000000000bb
:10397000041140205800000000000000bc09402055
:103980000802000000000000401240201c0000005f
:103990000100000000000000745441008054410008
:1039a000445441007454410074544100010000002b
:1039b000d8124020140000000100000001010000a6
:1039c000adc941009dc94100bdc94100c0fd000015
:1039d0003c00402010000000000000008014402047
:1039e00004000000000000008414402004000000d7
:1039f00001000000aaaaaaaa88144020040000001e
:103a0000000000008c1440200400000000000000b2
:103a1000901440200400000000000000a01040208e
:103a20006400000000000000941440200400000026
:103a30000000000098144020040000000000000076
:103a40009c1440200400000000000000a01440204e
:103a50000400000000000000a41440200400000046
:103a600000000000a8144020040000000000000036
:103a7000ec12402014000000000000000013402061
:103a80001400000000000000ac14402004000000fe
:103a900000000000b01440200400000000000000fe
:103aa000b414402004000000000000001413402063
:103ab0001400000000000000b814402004000000c2
:103ac0000000000028134020140000000000000047
:103ad0003c1340201400000000000000bc144020f3
:103ae0000400000000000000c0144020040000009a
:103af00000000000981340200800000001000000b2
:103b0000ffffffffffffffff4c0040201000000001
:103b100000000000c4144020040000000100000068
:103b2000f0fa4520f0fa45202804000001000000ca
:103b300000000000dcfd452044fe4520acfe452091
:103b40000000000000000000000000000000000075
:103b50000000000000000000000000000000000065
:103b60000000000000000000000000000000000055
:103b70000000000000000000000000000000000045
:103b80000000000000000000000000000000000035
:103b90000000000000000000000000000000000025
:103ba0000000000000000000000000000000000015
:103bb0000000000000000000000000000000000005
:103bc00000000000000000000000000000000000f5
:103bd00000000000000000000100000000000000e4
:103be0000e33cdab34126de6ecde05000b000000a9
:103bf00000000000000000000000000000000000c5
:103c000000000000000000000000000000000000b4
:103c100000000000000000000000000000000000a4
:103c20000000000000000000000000000000000094
:103f50000000000000000000c40b40206c010000c5
:103f6000010000004300000000000000000000000d
:103f70000000000000000000000000000000000041
:103f800000000000430000000000000000000000ee
:103f90000000000000000000000000000000000021
:103fa00000000000430000000000000000000000ce
:103fb0000000000000000000000000000000000001
:103fc00000000000430000000000000000000000ae
:103fd00000000000000000000000000000000000e1
:103fe000000000004300000000000000000000008e
:103ff00000000000000000000000000000000000c1
:10400000000000004300000000000000000000006d
:1040100000000000000000000000000000000000a0
:10402000000000004300000000000000000000004d
:104030000000000000000000000000000000000080
:1040400000000000d5c0410071ae4100000000003a
:1040500064084100d4c74100d0c74100d0c7410027
:10406000d0c74100d0c74100d0c74100d0c74100f0
:10407000d0c74100d0c74100d0c74100ffffffffbc
:10408000ffffffffffffffffffff000001004153a5
:10409000434949000000000000000000000000004b
:1040a000000000000000000000000000000041537c
:1040b000434949000000000000000000000000002b
:1040c00000000000000000000000000000000000f0
:1040d000bc1140202800000000000000c81440204f
:1040e0000400000000000000cc1440200400000088
:1040f00000000000d0144020040000000000000078
:1041000060004020080400000100000000000000e2
:104110000000000060004020600040206800402057
:10412000680040207000402070004020780040204f
:1041300078004020800040208000402088004020ff
:1041400088004020900040209000402098004020af
:1041500098004020a0004020a0004020a80040205f
:10416000a8004020b0004020b0004020b80040200f
:10417000b8004020c0004020c0004020c8004020bf
:10418000c8004020d0004020d0004020d80040206f
:10419000d8004020e0004020e0004020e80040201f
:1041a000e8004020f0004020f0004020f8004020cf
:1041b000f80040200001402000014020080140207c
:1041c000080140201001402010014020180140202b
:1041d00018014020200140202001402028014020db
:1041e000280140203001402030014020380140208b
:1041f000380140204001402040014020480140203b
:1042000048014020500140205001402058014020ea
:10421000580140206001402060014020680140209a
:10422000680140207001402070014020780140204a
:1042300078014020800140208001402088014020fa
:1042400088014020900140209001402098014020aa
:1042500098014020a0014020a0014020a80140205a
:10426000a8014020b0014020b0014020b80140200a
:10427000b8014020c0014020c0014020c8014020ba
:10428000c8014020d0014020d0014020d80140206a
:10429000d8014020e0014020e0014020e80140201a
:1042a000e8014020f0014020f0014020f8014020ca
:1042b000f801402000024020000240200802402077
:1042c0000802402010024020100240201802402026
:1042d00018024020200240202002402028024020d6
:1042e0002802402030024020300240203802402086
:1042f0003802402040024020400240204802402036
:1043000048024020500240205002402058024020e5
:104310005802402060024020600240206802402095
:104320006802402070024020700240207802402045
:1043300078024020800240208002402088024020f5
:1043400088024020900240209002402098024020a5
:1043500098024020a0024020a0024020a802402055
:10436000a8024020b0024020b0024020b802402005
:10437000b8024020c0024020c0024020c8024020b5
:10438000c8024020d0024020d0024020d802402065
:10439000d8024020e0024020e0024020e802402015
:1043a000e8024020f0024020f0024020f8024020c5
:1043b000f802402000034020000340200803402072
:1043c0000803402010034020100340201803402021
:1043d00018034020200340202003402028034020d1
:1043e0002803402030034020300340203803402081
:1043f0003803402040034020400340204803402031
:1044000048034020500340205003402058034020e0
:104410005803402060034020600340206803402090
:104420006803402070034020700340207803402040
:1044300078034020800340208003402088034020f0
:1044400088034020900340209003402098034020a0
:1044500098034020a0034020a0034020a803402050
:10446000a8034020b0034020b0034020b803402000
:10447000b8034020c0034020c0034020c8034020b0
:10448000c8034020d0034020d0034020d803402060
:10449000d8034020e0034020e0034020e803402010
:1044a000e8034020f0034020f0034020f8034020c0
:1044b000f80340200004402000044020080440206d
:1044c000080440201004402010044020180440201c
:1044d00018044020200440202004402028044020cc
:1044e000280440203004402030044020380440207c
:1044f000380440204004402040044020480440202c
:1045000048044020500440205004402058044020db
:1045100058044020d4144020040000000100000092
:10452000ffffffffd814402004000000010000003e
:10453000000002005c0040200400000000000000b9
:10454000dc14402004000000000000000000000017
:1045500000000000222222222222222222222222c3
:020000040000fa
:020000040040ba
:104560002de9f04f93b00f210a2015f0a5fb07901d
:1045700010f0010f12d1079b13f0020f40f0748569
:1045800013b0bde8f08fb9f8223013f4007f0cd0df
:104590006ff00d010a22484617f0e5fb0a2016f0dd
:1045a000f9fb81460028eed1e5e7d9f81c301c461e
:1045b0000293b9f82060132e40f24385d9f81870a1
:1045c00007f110030493fb680f933b6910930022db
:1045d0008df8442006238df84530330a43ea06233c
:1045e000adf846300c210fa812f08afec3439bb2ef
:1045f000b9f8222012f0040f35d032462146484641
:1046000011f048f8002840f02085029c204612f066
:104610000bfd94f80cb04fea1b1b4fea8b0babf170
:10462000140b1ffa8bf30693d9f81c80d9f828c015
:10463000b8f802b0bbf1000f00f00b85fd89bb8913
:104640001d44b8f800301d4485ea0b05adb2c74bd8
:104650001a68002a00f00185c54bd3f800e000235a
:104660009a4619460ee01a463146029812f048fe64
:10467000c8e7206c844512d088b101331bb21946bb
:1046800093422ed25ef82140002cf6d094f86e10a2
:104690000b29f2d094f86f000128eed8e9e741b970
:1046a000b4f86a105945e8d1baf1000f08bfa24624
:1046b000e3e7b4f86a10a942dfd1d8f80000a16d91
:1046c0008842dad1a06bf9688842d6d1012184f8fa
:1046d0006f10c4f840c0049a204615f055fda2465c
:1046e0001de0baf1000f00f08c80fb68caf838308a
:1046f00001218af86f10caf840c0049a504615f09c
:1047000043fdaaf86a50b8f80030aaf85830b8f853
:104710000230aaf85a30daf80030caf81030d9f866
:1047200010201389143b06995b1a1381029a547b5b
:10473000d2f8088055689af8373013f0400f63d1eb
:104740009af86d306ff300038af86d309af86e3086
:10475000002b7dd0012b00f0b280069ab61ab6b2bb
:10476000a6f1140292b2069214f001020a9200f02d
:10477000db80133e1ffa86fb14f0020f03d00bf10f
:10478000010b1ffa8bfbdaf81c60daf82020964246
:10479000c0f0cd80daf81810daf81400091ab21a4d
:1047a0008a1a92b20492daf85020af1abbf1000fc5
:1047b00000f0c280049a002a00f0cb80002f01dbb9
:1047c00097420ed307eb0b02002a40f3c2800499f4
:1047d000a1eb0b029742ccbf002201228f4280f254
:1047e000b58014f0060f00f0cb8014f0040f0cbf5e
:1047f00000264ff40066002150460df087fe00f0c1
:104800000abc6ff00d01c5e600238af871309af8f2
:10481000363013f0020f93d115f05cfbcde90401a3
:10482000baf8687018f0b6fa524ba3fb00231b0cc1
:1048300007fb03f7504ba3fb0737bf094f4a002381
:10484000dde9040116f08af83844caf8240077e755
:1048500014f0040f1ad114f0100f1dd114f0020f30
:1048600027d00135caf8505002980df08effaaf8f3
:104870006200504615f079f801221221504602f0ec
:10488000e1ff02238af86e300026c4e3002150467f
:104890000df03cfe0026bee3caf84c800022042145
:1048a000504602f0cfff002150460df02ffe0026ab
:1048b000b1e3002150460df029fe0026abe314f0d1
:1048c000040f40f0a78314f0100f00f09e85daf873
:1048d0004c60b04500f07a85caf84c800122042172
:1048e000504602f0afffcaf84c60002693e315f083
:1048f000f1fa06460f46baf8684018f04bfa1d4b1d
:10490000a3fb00231b0c04fb03f41b4ba3fb04348d
:10491000a4091a4a00233046394616f01ff82044ed
:10492000caf8240000f049bdddf818b024e7921b56
:10493000013a92b2049236e7002f3ff452af002fb3
:1049400007db049a9742acbf00220122002a7ff4c1
:1049500048af14f0040f01d000265ce301221021bf
:10496000504602f06fff002655e300bfcc134020f5
:10497000c8134020851dd96fd34d6210f049020045
:1049800014f0100f00f04e83023b072b00f27e81e3
:10499000dfe813f008001d001d001d001d007c0154
:1049a0001d006f01daf84c60b0450ad0caf84c809f
:1049b00001220421504602f045ffcaf84c6000264f
:1049c00029e303238af86e304ff4807600e0002656
:1049d000daf808300d93daf81020981a14d4daf8bf
:1049e0004c30a8eb0301091a00291dddbaf86c0050
:1049f00000f40170042801d101290cd000221021fb
:104a0000504602f01fff06e3daf80430daf800102f
:104a10005b1a1844e3e70133caf84c309af86d305a
:104a200043f002038af86d30daf84c300b93daf871
:104a30000c00a2eb000ca3eb0c0c824240d2daf883
:104a40000430daf80010a3eb010eaceb0e0ea8eb6d
:104a50000e0ebef1000f3bdddaf804301946089364
:104a6000daf80030c91a714530d39af86c3003f087
:104a7000ef036ff345138af86c309af836306ff312
:104a800045138af836307044caf80c000a44904244
:104a900076d8089b984202d3401acaf80c00daf87c
:104aa0001030089a934202d35b1acaf810309af871
:104ab0006e30032b01d0082b33d146f0040630e0d2
:104ac000a8eb0c030c93002b00f3ae84824228d099
:104ad0009af86c3013f0100f1dd013f0200f14d083
:104ae000caf84cc0824208d2daf80430daf8002062
:104af0009b1aaceb0303caf84c30caf810009af8c2
:104b0000363043f080038af836309af86c3043f040
:104b100020038af86c309af86c3043f010038af85e
:104b20006c30daf80c300d9a9a4232d0029bdb8955
:104b3000baf866209a4238bfaaf86630daf84c20f4
:104b4000029bdb8943449b1a9bb2baf85c1031b9d3
:104b50002bb19af8361041f040018af83610aaf8c5
:104b60005c309af86e30042b57d0062b40f08f80c3
:104b7000904540f05082002150460df0c7fc4ae2bb
:104b8000821a0b9b1a44caf84c20caf8100000f095
:104b900072bc9af8373013f0010f28d113f0400f90
:104ba0001ed015f097f9cde90801baf868300b93db
:104bb00018f0f0f8c749a1fb00131b0c0b9a02fb7d
:104bc00003f3c54aa2fb03239b090b93c34a0023ab
:104bd000dde9080115f0c2fe0b9b1844caf8240059
:104be0009af836306ff341038af836309ee7daf8e8
:104bf0004c3098459ad19af86c3013f0040f95d048
:104c00009af836306ff341038af836309af8373025
:104c10006ff300038af8373088e7904503d014f02b
:104c2000200f43d0f7e19af86c3013f0040ff6d060
:104c300015f050f9cde9080118f0acf8a54ba3fb2d
:104c400000231b0c41f2883202fb03f3a24aa2fbb1
:104c500003239b090b93a14a0023dde9080115f00a
:104c60007dfe0b9b1844caf8300005238af86e308d
:104c7000d5e7daf84c300133984501d00026cae177
:104c8000002150460df042fc0026c4e1002614f03d
:104c9000200f40f0c0819af86e20a2f10803dbb229
:104ca000012b40f2b881062a00f0b581069b002b4b
:104cb00000f0a180002f46dd069b3b4404998b4207
:104cc00002ddcc1ba3b20693029a137b1b0902ebf5
:104cd00083030e93daf81c10daf81820069b3b4485
:104ce0000b449a4280f0fc80531a0133db1b00f125
:104cf000e3809ab201240094029213460ea8024661
:104d00003944484612f0f2f80490069b029a9b1a26
:104d1000daf8141000949bb20eaa484612f0e6f896
:104d2000049b034498b2069b834264d1daf8543062
:104d3000b3f1ff3f40f0dd80caf85470bdf8183081
:104d4000aaf8603057e0029a137b1b09c7eb830374
:104d500013440e93069b3b449cb2049ba34228bf82
:104d600023461c46daf81c10daf818300a19934268
:104d70007fd25b1a01330293bdf808200127009708
:104d8000069213460ea80246484612f0aff8049069
:104d9000069aa31adaf8141000979bb20eaa484696
:104da00012f0a4f8049a024490b2029be31adaf8d3
:104db0001420134484421ed1daf850102144caf85a
:104dc0005010caf81c309af86e20033ad2b2022a68
:104dd00098bf46f40076daf85420b2f1ff3f0ad0cb
:104de000141bcaf85440baf8602012194cd54ff081
:104df000ff33caf85430bbf1000f00f0a8809af8d6
:104e00006e30033bdbb2022b03d9daf81c30caf850
:104e100020309af8363013f0100f40f093809af853
:104e2000363043f010038af8363013f0080f40f0a4
:104e30008e80dbb243f008038af8363015f04af86a
:104e4000cde9020117f0a6ff224ba3fb00231b0ca8
:104e5000642404fb03f4204ba3fb0434a4091f4a7d
:104e60000023dde9020115f079fd2044caf82c0089
:104e70006de00123009323460eaa484612f036f84f
:104e8000daf81c30234495e7002cb4dc1144caf84e
:104e900050101344caf81c30daf81820934206d98f
:104ea000daf81410521ad2431344caf81c304ff0e7
:104eb000ff33caf854309ee7781edaf81430d21a5d
:104ec000801a01230093069b0eaa0144484612f063
:104ed0000df828e7851dd96fd34d6210f049020007
:104ee00001230093069b0eaa3944484611f0feffa9
:104ef00019e79f4214d2069ad119baf86020d01847
:104f0000814201d88b4206d9bdf81830aaf860302a
:104f1000caf854706fe71344db1baaf86030f7e758
:104f2000baf860201a4406980146394491427ff647
:104f300062af97423ff65faffb1a01461944aaf8e9
:104f4000601058e701221021504602f07bfc0a9bba
:104f5000002b60d0daf8503001335d44ab425ad1b7
:104f6000caf8503046f480669af86e30023b032b44
:104f70002ed8dfe803f0020b334509238af86e30a0
:104f800001221121504602f05dfc44e008238af81a
:104f90006e3014f09fff04460d4617f0fbfed04b19
:104fa000a3fb00231b0cc82707fb03f7cd4ba3fb78
:104fb0000737bf09cc4a00232046294615f0cefc0e
:104fc0003844caf830009af86d3013f0010f22d13e
:104fd00001221021504602f035fc1ce0daf84c307a
:104fe000984509d100221021504602f02bfc0021e7
:104ff00050460df08bfa0ee006238af86e30e7e794
:1050000000221021504602f01dfc002150460df0f8
:105010007dfa00e00026baf87220324004d1022165
:10502000fff7b8ba0026f6e7daf87440ccb1daf840
:105030007830d9f82810baf93400a0470221fff7d8
:10504000a9ba6ff00c01fff7a5ba6ff00901fff7dd
:10505000a1ba6ff00d01fff79dba6ff00d01fff7d8
:1050600099ba0221fff796baa04b1b68002b3ff4b8
:1050700087aa00252b469e4fdff864b2dff864a2b2
:10508000b5e00026b046c4e014f024ff964a0023a1
:1050900015f064fca36ac01a0028a8bf1026bce063
:1050a00014f018ff904a002315f058fce36ac01a68
:1050b0000028a8bf1026b6e014f00cff8a4a00238f
:1050c00015f04cfc236bc31a002bc0f2b1800923ee
:1050d00084f86e30112688f001023146204602f035
:1050e000b1fbade014f0f6fe7f4a002315f036fc6c
:1050f000236bc31a002bc0f2a0800122142120468a
:1051000002f0a0fb002120460df000fa67e094f8c1
:10511000366006f00106012120460ef0c3fb94f82c
:10512000363043f0010384f836304ff480520021ca
:10513000204613f074f9002e51d194f836306ff3f5
:10514000000384f836300a2384f86e3047e014f008
:10515000c1fe654a002315f001fc636ac01a0028ed
:105160003ddb94f86e30013b082b00f2fd80dfe858
:1051700013f00900c100d800e300fb00eb00fb00c6
:10518000fb00f30094f87030032b00f296800226a7
:105190004ff0000994f87030013384f87030a36c3c
:1051a0005b00a3642169e2688b1a9bb2914204d22e
:1051b00061682068091a0b449bb2e16cc91ae1646a
:1051c000b4f85c100b44a4f85c3022610022314634
:1051d000204602f037fbb9f1000f40f0cb800135db
:1051e0002db22b46414a12689542bff4c9a93a68cc
:1051f00052f82340002cf2d094f86e300b2beed0f6
:1052000094f8363013f0c00f3ff43baf4fead31899
:10521000102613f0040f7ff437af94f8363013f0f4
:10522000080f7ff43daf94f86e30082b3ff444af85
:1052300094f86e30052b3ff455af002e7ff44baf42
:1052400094f8363013f0020f81d194f8373013f010
:10525000400fc4d094f86e30032bc0d114f03afe46
:10526000214a002315f07afb636ac31a002bb6dbd0
:1052700094f8712094f87c309a423ff448af0222af
:105280001021204602f0defa14f024fe8046894602
:10529000b4f8686017f07efdabfb00231b0c06fb27
:1052a00003f6aafb0636b6090f4a002340464946d4
:1052b00015f054fb3044606291e7042384f87030a9
:1052c00017f068fdabfb00231a0c4ff47a7303fb55
:1052d00002f3aafb03239b091b01a364022657e7e1
:1052e000851dd96fd34d6210f0490200cc134020c8
:1052f000c813402094f87030022b40f28b8094f851
:10530000363013f0010314bf142602269946b8f173
:10531000000f7ff43faf01223146204602f092fa9f
:1053200059e794f87030042b76d9042384f86e3052
:1053300011264ff00009eae794f87030042b6dd97c
:1053400014264ff00109e2e794f87030042b67d976
:1053500014264ff00109dae794f87030042b61d974
:1053600014264ff00109d2e7002e3ff438af4ff07a
:105370000009cce7002120460df0c8f82fe70135e1
:10538000caf850500298c389aaf86630aaf85c306f
:105390000df0fbf9aaf86200504614f0e6fa01227b
:1053a0001021504602f04efa03238af86e309af824
:1053b000373013f0400f7ff49aaa9af836306ff323
:1053c00041038af836304ff4807624e614f0020f59
:1053d000d5d100261fe60135caf850500298c3897e
:1053e000aaf86630aaf85c300df0cff9aaf862008e
:1053f000504614f0bafa01221221504602f022fa65
:1054000002238af86e30002605e614f0020fe2d17e
:10541000002600e61226bbe61026b9e61126b7e6fe
:105420001026b5e61126b3e6daf804100b4608910b
:10543000daf80010591a0c9b8b423ff647ab9af8ea
:105440006ce00ef0ef0e6ff3451e8af86ce09af8f0
:1054500036e06ff3451e8af836e00c9b1844caf814
:105460000c008242bff415ab831a0b9a1344caf89e
:105470004c30caf81000089b83427ff60dabfff753
:0454800016bb00bf98
:020000040000fa
:020000040040ba
:04548400002070474d
:020000040000fa
:020000040040ba
:105488002de9f04f056c93b004465bec10ab1c9f04
:105498000191914604934db1426c6a600123934097
:1054a800ab60294617f0a8f900232364bbf1000f6d
:1054b8005e4635db00233b60c14bb34315d04bec54
:1054c80017abb5ee407bf1ee10facde902ab2dd16a
:1054d800049a012313601d9b002b00f0b380b94888
:1054e8001860013813b0bde8f08f049a42f20f73c8
:1054f8001360baf1000f0dd1c6f3130656b91d9b00
:10550800b148002beed000f108031d9a136013b0c8
:10551800bde8f08f1d9bad48002be3d0c31cf4e71a
:1055280001232bf000463b60b346c5e711a910aa3a
:105538009ded020b20460df093fe310d804665d09f
:10554800dde90223c3f3130040f07f5300251098d0
:105558000d95a1f2ff3143f4401343ec172bb7ee3e
:10556800086b9fed914b37ee466b9fed917b9fed5e
:10557800925ba6ee047b06ee901ab8eee66ba6eefa
:10558800057bfdeec76bb5eec07bf1ee10facdedf5
:10559800026a00f13081029d162d00f201818c4bc8
:1055a80003ebc50393ed007b4bec16abb4eec67b67
:1055b800f1ee10fa40f383816b1e029300230b93e4
:1055c800411a4b1e069300f1108100230793029b9a
:1055d800002bc0f20181069a0a9311461944002350
:1055e80006910593019b092b2ed8052b40f3508576
:1055f800043b01930025019b023b032b00f25085dd
:10560800dfe813f0490386025603d803109811996e
:10561800014401f23243202b40f34a81c3f1400395
:1056280001f212429e402afa02f3334307ee903aff
:10563800b8ee677b012553ec172b0139a3f1f873fa
:105648000d958ae763484de7002161642046894645
:1056580013f0f2f94ff0ff36012308902064cdf8db
:1056680004900c960993119b002b7adb029a0e2a60
:1056780077dc574bb9f1000f03ebc20393ed004bf6
:10568800c0f232834bec17ab87ee046bbdeec66bf2
:10569800089a16ee103a012e03f13003b8eec65bf5
:1056a80002f1010b1370a5ee447b24d0b2ee043b4b
:1056b80027ee037bb5ee407bf1ee10fa3cd0b1ee5d
:1056c800442b089a06e027ee037bb5ee407bf1ee0b
:1056d80010fa31d087ee046bbdeec66b16ee103aa9
:1056e80030330bf8013babeb0203b342b8eec65bb9
:1056f800a2ee057be7d137ee077bb4eec74bf1eea0
:1057080010fa08d4b4ee474bf1ee10fa14d116eea5
:10571800103adb0710d51bf8013c08990bf1ff3252
:1057280004e0914200f0da8312f8013d392b02f1ce
:10573800010bf6d0013313704146204617f05cf890
:105748000022029b8bf80020049a013313601d9bf2
:10575800002b00f055830898c3f800b013b0bde8db
:10576800f08f099a002a52d0019a012a40f3e28266
:105778000599721e9142c0f246838b1a0d93002e32
:10578800c0f21584079f3346079a1a440792069a6f
:1057980001211a442046069217f038f805463ae0e7
:1057a80001230b930ce700bf61436f63a787d23fc8
:1057b800b3c8608b288ac63ffb799f501344d33ff8
:1057c8000000f07ffdc74100ecc74100f8c7410069
:1057d800d82d4100fcc74100079a029bd21a5b42b0
:1057e8000593002307920a93fce6c1f1010307938e
:1057f80000230693ebe6b8eee66bb4ee467bf1eedb
:1058080010fa3ff4c8ae029b013b0293c3e6059b26
:10581800079f099d0d93002f0cdd069900290b4663
:1058280008ddb942079aa8bf3b46d21aff1acb1a1d
:1058380007920693059bebb1099b002b00f073823e
:105848000d9b002b11dd1a46294620460ef08cfdd3
:1058580042460146054620460af05ef841460e904b
:10586800204616f0c9ff0e9b9846059b0d9a9a1a7a
:1058780040f05a820121204616f0c8ff0a9b059085
:10588800002b1fdd01461a4620460ef06dfd019bd8
:105898000590012b40f30f8200230d93059a13699d
:1058a80002eb8303186914f01df8c0f1200013e01f
:1058b800c3f120030afa03f307ee903ab8e600238f
:1058c8000b937de6019b012b40f33e8200230d9351
:1058d8000a9b0120002be1d1069a104410f01f000a
:1058e80000f09e80c0f12003042b40f3d483079b73
:1058f800c0f11c000344079313460344074406936e
:10590800079b002b05dd41461a4620460ef068f934
:105918008046069b002b05dd1a46059920460ef0a9
:105928005ff905900b9b002b40f08380002e40f31d
:105938001e82099b002b00f09680002f05dd29466a
:105948003a4620460ef04cf905460d9b002b40f0d8
:10595800ce822f46089b013e9a1909920af001024d
:105968000a921e46ddf814b04046594609f040ff39
:1059780029468246404614f0abfc3a4659468146d1
:1059880020460af065fec36883460af13002002b00
:1059980040f0e58101464046079214f099fc5946cb
:1059a8000690204616f028ff069b079a33b90199fe
:1059b80021b90a9b002b00f04383019bb9f1000f2a
:1059c800c0f23b8205d1019919b90a99002900f062
:1059d8003482002b00f39f82099b327006f1010983
:1059e8009e42cb4600f0a282414600230a2220466e
:1059f8000ff08cffbd42804629464ff000034ff060
:105a08000a02204600f0a5810ff080ff39460546be
:105a180000230a2220460ff079ff4e460746a1e7e9
:105a28001c20079b03440793069b034407440693e3
:105a380066e70599404614f04bfc0028bff676afa0
:105a4800029e414600230a222046013e02960ff09c
:105a58005dff099b8046002b40f002830c9b002bc6
:105a680040f30a831e46ddf820a0ddf814b057463f
:105a780002e00ff04bff80465946404609f0b8fe59
:105a880000f1300907f8019ba7eb0a03b3424ff076
:105a98000a024ff0000341462046eadb089b012e2c
:105aa800acbf9b1901339b464ff0000a41460122c7
:105ab80020460ef095f80599804614f009fc002858
:105ac80040f3d7811bf8012c08990bf1ff3304e050
:105ad8008b4200f0688113f8012d392a03f1010b7c
:105ae800f6d001321a700599204616f085fe002d71
:105af8003ff422aebaf1000f05d0aa4503d05146b3
:105b0800204616f079fe2946204616f075fe13e663
:105b180000230993029b4b445e1c012e37460c93cd
:105b2800b8bf01270e960021172f61640ad90122f8
:105b380004235b0003f114008742114602f10102bd
:105b4800f7d26164204612f077ff0e9b08900e2b67
:105b580020643ff688ad002d3ff485ad02980028fb
:105b6800cde90eab40f39a81c84a00f00f0302eb6f
:105b7800c3020311df0692ed007b40f14d81c44a58
:105b880092ed086b4bec14ab03f00f03032184ee8a
:105b9800065b5bb1be4add0704d592ed006b0131af
:105ba80027ee067b5b1002f10802f4d185ee076b45
:105bb8000b9b3bb1b7ee007bb4eec76bf1ee10fa6e
:105bc80000f10682b1ee0c5b07ee901ab8eee77ba7
:105bd800a7ee065b51ec150ba1f15071002e00f0f9
:105be800f880029a3546099b002b00f0a781b6ee93
:105bf800003ba64b089f03ebc50313ed024bbdee1c
:105c0800c67b83ee045b17ee103a41ec140b30337d
:105c1800dbb235ee445bb8eec77b36ee477bb4eebd
:105c2800c75bf1ee10fa3b7007f1010b31dcb7ee00
:105c3800003b33ee476bb4eec65bf1ee10fa00f3af
:105c4800fa81012d00f02681b2ee044b089b591908
:105c58000ae033ee476bb4eec56bf1ee10fa00f1d3
:105c6800ea818b4500f0168127ee047b25ee045b64
:105c7800bdeec76b16ee103a3033dbb2b8eec66b2a
:105c880037ee467bb4eec57bf1ee10fa0bf8013b1c
:105c9800dfd5029250e500230993b9f1000f40f3d4
:105ca800bf804f46cdf83890cdf830904e463ae751
:105cb80001230993f1e7baf1000f7ff4edadcbf3bf
:105cc8001303002b7ff402ae2bf000431b0d1b05c2
:105cd800002b00f0b381079b01330793069b013328
:105ce800069301230d93f3e5002e3ff7cbac40f06c
:105cf8008380b1ee047b24ee074b4bec17abb4ee7c
:105d0800c74bf1ee10fa3546059643db6fea0903f7
:105d1800ddf820b002930599204616f06dfd002da0
:105d28003ff40aadefe6059a414620460ef01cfb0b
:105d380080469fe50d9a002a00f03e81059a0d9253
:105d480003f23343079f1fe5baf1000f7ff4bead9e
:105d5800b5e70ff0dbfd4e460546074602e601466d
:105d68002046069216f048fd0123069a26e6019b76
:105d7800022b7ff7dead002ec8d1334605990522e8
:105d880020460ff0c3fd01460590404614f0a0fae6
:105d98000028bbdd029a08993123013202920b7068
:105da80001f1010bb7e7029a01320292089a3123f6
:105db800137098e601230993ace607ee901ab1ee4a
:105dc8000c5bb8eee77ba6ee075b51ec150ba1f177
:105dd8005071b1ee047b36ee477b41ec160bb4ee06
:105de800c67bf1ee10fa00f3a580b1ee466bb4ee77
:105df800c67bf1ee10fa4dd5002305931d4685e7c5
:105e08000898fff76fbb059b0a990592d31a1944a6
:105e180000230a910d93b2e49ded0e5b0221b8e6d2
:105e280000216164204612f007fe4ff00109089036
:105e380020644e46cdf830908de6002b914611dd5a
:105e48004146012220460df0cbfe0599804614f00c
:105e58003ffa002840f3fd80b9f1390f00f0d480f3
:105e68000af13109aa4686f8009006f1010b3d4671
:105e780039e604d119f0010f01d023e693461bf847
:105e8800013c302b0bf1ff32f8d02ce6d82d410025
:105e980078b44100dde90eabfff7e5bb00f0948074
:105ea800029b884a5b4203f00f0102ebc10292edac
:105eb800006b9ded0e7b1b1127ee066b00f0e18059
:105ec800814a0221d80704d592ed007b013126eee4
:105ed800076b5b1002f10802f4d169e608993023d8
:105ee8000b70029b013302931bf8013c22e46968a2
:105ef800204612f0a1fd2b69023307469a0005f1ee
:105f08000c010c3009f058f83946012220460df0f2
:105f180067fe07461ee5392a76d002f10109aa462e
:105f280086f8009006f1010b3d46dce5aa4691464d
:105f38003d46bbe5002305931d462be7614bbdeeaf
:105f4800c67b03ebc50313ed024b17ee103a41ec89
:105f5800150b089824ee054b3033012db8eec77b9e
:105f6800037000f1010b36ee477b12d0b2ee045bf2
:105f7800089b591927ee057bbdeec76b16ee103a44
:105f880030330bf8013b8b45b8eec66b37ee467bda
:105f9800f0d1b6ee006b34ee065bb4eec75bf1ee03
:105fa80010fa38d502921bf8013cfff7b6bb079be5
:105fb8009f1b0023fff7e8bb109b059a0d92c3f1c6
:105fc8003603079ffff7e0bb9ded0e6b0221efe55f
:105fd800002e3ff4f2ae0c9b002b7ff75bafb2eec6
:105fe800044bb1ee0c5b013107ee901a26ee046b00
:105ff800b8eee77b029aa6ee075b51ec150b013a67
:106008001d46a1f15071eee53922aa4632703d468f
:1060180006f1010b58e536ee446bb4eec76bf1eeb2
:1060280010fa01dc36e78b461bf8013c302b0bf1ec
